{
  "transactions": [
    {
      "hash": "0x0eb5651ece26459f6b99e6cd3742fc40094fe97fd88768708aaea344fa469c78",
      "transactionType": "CALL",
      "contractName": "TransparentUpgradeableProxy",
      "contractAddress": "0x8735049F496727f824Cc0f2B174d826f5c408192",
      "function": null,
      "arguments": null,
      "transaction": {
        "type": "0x02",
        "from": "0x207e804758e28f2b3fd6e4219671b327100b82f8",
        "to": "0x8735049f496727f824cc0f2b174d826f5c408192",
        "gas": "0x2a444",
        "value": "0x0",
        "data": "0x2f2ff15dfdd95c635b6fde1e24676722ae45d4e9072f4947c3c68d69c7de01654c8405090000000000000000000000004e59e778a0fb77fbb305637435c62faed9aed40f",
        "nonce": "0xb0",
        "accessList": []
      },
      "additionalContracts": [],
      "isFixedGasLimit": false
    },
    {
      "hash": "0x5d058c094f30c3342298a4e2734c4d2ee3795856d9b15408a3ce0b8deee0ca37",
      "transactionType": "CALL",
      "contractName": "TransparentUpgradeableProxy",
      "contractAddress": "0x8735049F496727f824Cc0f2B174d826f5c408192",
      "function": null,
      "arguments": null,
      "transaction": {
        "type": "0x02",
        "from": "0x207e804758e28f2b3fd6e4219671b327100b82f8",
        "to": "0x8735049f496727f824cc0f2b174d826f5c408192",
        "gas": "0x24802",
        "value": "0x0",
        "data": "0x2f2ff15db8921042efede08ea4fb87c7cd34c42ab1e134df6d8ef481f71c91910346d8350000000000000000000000004e59e778a0fb77fbb305637435c62faed9aed40f",
        "nonce": "0xb1",
        "accessList": []
      },
      "additionalContracts": [],
      "isFixedGasLimit": false
    },
    {
      "hash": "0xf20d67130cf4948d1f09995602f56f2353023345d8fd072d1acd955f935a2445",
      "transactionType": "CALL",
      "contractName": "TransparentUpgradeableProxy",
      "contractAddress": "0x8735049F496727f824Cc0f2B174d826f5c408192",
      "function": null,
      "arguments": null,
      "transaction": {
        "type": "0x02",
        "from": "0x207e804758e28f2b3fd6e4219671b327100b82f8",
        "to": "0x8735049f496727f824cc0f2b174d826f5c408192",
        "gas": "0x24802",
        "value": "0x0",
        "data": "0x2f2ff15db8921042efede08ea4fb87c7cd34c42ab1e134df6d8ef481f71c91910346d835000000000000000000000000432abccb04ddd86db9aa91fa3e03fb566270c9ff",
        "nonce": "0xb2",
        "accessList": []
      },
      "additionalContracts": [],
      "isFixedGasLimit": false
    },
    {
      "hash": "0xdeb921e6eea5acd9f2041a7912d41172e34d316e15c1d2fdf7775c163f9a1a7a",
      "transactionType": "CALL",
      "contractName": "TransparentUpgradeableProxy",
      "contractAddress": "0x8735049F496727f824Cc0f2B174d826f5c408192",
      "function": null,
      "arguments": null,
      "transaction": {
        "type": "0x02",
        "from": "0x207e804758e28f2b3fd6e4219671b327100b82f8",
        "to": "0x8735049f496727f824cc0f2b174d826f5c408192",
        "gas": "0x11094",
        "value": "0x0",
        "data": "0x36568abeb8921042efede08ea4fb87c7cd34c42ab1e134df6d8ef481f71c91910346d835000000000000000000000000207e804758e28f2b3fd6e4219671b327100b82f8",
        "nonce": "0xb3",
        "accessList": []
      },
      "additionalContracts": [],
      "isFixedGasLimit": false
    },
    {
      "hash": "0xdcaf2c86baf41ecef3003bc045fe1d9877d68ac1d71a42e9eaf94f6068c6b17b",
      "transactionType": "CALL",
      "contractName": "TransparentUpgradeableProxy",
      "contractAddress": "0x8735049F496727f824Cc0f2B174d826f5c408192",
      "function": null,
      "arguments": null,
      "transaction": {
        "type": "0x02",
        "from": "0x207e804758e28f2b3fd6e4219671b327100b82f8",
        "to": "0x8735049f496727f824cc0f2b174d826f5c408192",
        "gas": "0xf4f9",
        "value": "0x0",
        "data": "0xd547741f0000000000000000000000000000000000000000000000000000000000000000000000000000000000000000432abccb04ddd86db9aa91fa3e03fb566270c9ff",
        "nonce": "0xb4",
        "accessList": []
      },
      "additionalContracts": [],
      "isFixedGasLimit": false
    },
    {
      "hash": "0x4f3ca7cc949fbae0becc10346f004bd4f174906b05847d5bade3adfcf50a8d5d",
      "transactionType": "CALL",
      "contractName": "TransparentUpgradeableProxy",
      "contractAddress": "0x8735049F496727f824Cc0f2B174d826f5c408192",
      "function": null,
      "arguments": null,
      "transaction": {
        "type": "0x02",
        "from": "0x207e804758e28f2b3fd6e4219671b327100b82f8",
        "to": "0x8735049f496727f824cc0f2b174d826f5c408192",
        "gas": "0x10eeb",
        "value": "0x0",
        "data": "0x36568abe0000000000000000000000000000000000000000000000000000000000000000000000000000000000000000207e804758e28f2b3fd6e4219671b327100b82f8",
        "nonce": "0xb5",
        "accessList": []
      },
      "additionalContracts": [],
      "isFixedGasLimit": false
    },
    {
      "hash": "0x4b60bdaf77af4ae02b99bcad8c5f76c8417a89e7defffdab70ded8bb21873962",
      "transactionType": "CALL",
      "contractName": "TransparentUpgradeableProxy",
      "contractAddress": "0x92e56d2146D54d5AEcB25CA36c89D027a6ea0D90",
      "function": null,
      "arguments": null,
      "transaction": {
        "type": "0x02",
        "from": "0x207e804758e28f2b3fd6e4219671b327100b82f8",
        "to": "0x92e56d2146d54d5aecb25ca36c89d027a6ea0d90",
        "gas": "0x26a1a",
        "value": "0x0",
        "data": "0x2f2ff15d108f016deb2b2623375e344cf6aedfd098de0555db0c5f551a41c28df1651d030000000000000000000000004e59e778a0fb77fbb305637435c62faed9aed40f",
        "nonce": "0xb6",
        "accessList": []
      },
      "additionalContracts": [],
      "isFixedGasLimit": false
    },
    {
      "hash": "0xad727ef7607e1d2d99e7938115b3577050d5b556be27169e70873b06f511234e",
      "transactionType": "CALL",
      "contractName": "TransparentUpgradeableProxy",
      "contractAddress": "0x92e56d2146D54d5AEcB25CA36c89D027a6ea0D90",
      "function": null,
      "arguments": null,
      "transaction": {
        "type": "0x02",
        "from": "0x207e804758e28f2b3fd6e4219671b327100b82f8",
        "to": "0x92e56d2146d54d5aecb25ca36c89d027a6ea0d90",
        "gas": "0x11094",
        "value": "0x0",
        "data": "0x36568abe108f016deb2b2623375e344cf6aedfd098de0555db0c5f551a41c28df1651d03000000000000000000000000207e804758e28f2b3fd6e4219671b327100b82f8",
        "nonce": "0xb7",
        "accessList": []
      },
      "additionalContracts": [],
      "isFixedGasLimit": false
    },
    {
      "hash": "0x5368cef20eebe2219620446a5ceb46b4a97b2ed18f90538181904607d1e1cb97",
      "transactionType": "CALL",
      "contractName": "TransparentUpgradeableProxy",
      "contractAddress": "0x92e56d2146D54d5AEcB25CA36c89D027a6ea0D90",
      "function": null,
      "arguments": null,
      "transaction": {
        "type": "0x02",
        "from": "0x207e804758e28f2b3fd6e4219671b327100b82f8",
        "to": "0x92e56d2146d54d5aecb25ca36c89d027a6ea0d90",
        "gas": "0x26a1a",
        "value": "0x0",
        "data": "0x2f2ff15daa35fce2ef9ee0b84f290ae7382aca4092f6602051fe2a490784e88a82fe879d0000000000000000000000004e59e778a0fb77fbb305637435c62faed9aed40f",
        "nonce": "0xb8",
        "accessList": []
      },
      "additionalContracts": [],
      "isFixedGasLimit": false
    },
    {
      "hash": "0xbe915e5470eda08cefd09c4f106c14499c3d8b1aa5dbf83ebd60de164bff9e83",
      "transactionType": "CALL",
      "contractName": "TransparentUpgradeableProxy",
      "contractAddress": "0x92e56d2146D54d5AEcB25CA36c89D027a6ea0D90",
      "function": null,
      "arguments": null,
      "transaction": {
        "type": "0x02",
        "from": "0x207e804758e28f2b3fd6e4219671b327100b82f8",
        "to": "0x92e56d2146d54d5aecb25ca36c89d027a6ea0d90",
        "gas": "0x11094",
        "value": "0x0",
        "data": "0x36568abeaa35fce2ef9ee0b84f290ae7382aca4092f6602051fe2a490784e88a82fe879d000000000000000000000000207e804758e28f2b3fd6e4219671b327100b82f8",
        "nonce": "0xb9",
        "accessList": []
      },
      "additionalContracts": [],
      "isFixedGasLimit": false
    },
    {
      "hash": "0xa37614d9e349366ed765df80304b733dfe2466653a427f977988811ea105e84b",
      "transactionType": "CALL",
      "contractName": "TransparentUpgradeableProxy",
      "contractAddress": "0x92e56d2146D54d5AEcB25CA36c89D027a6ea0D90",
      "function": null,
      "arguments": null,
      "transaction": {
        "type": "0x02",
        "from": "0x207e804758e28f2b3fd6e4219671b327100b82f8",
        "to": "0x92e56d2146d54d5aecb25ca36c89d027a6ea0d90",
        "gas": "0xf4c7",
        "value": "0x0",
        "data": "0xd547741f0000000000000000000000000000000000000000000000000000000000000000000000000000000000000000432abccb04ddd86db9aa91fa3e03fb566270c9ff",
        "nonce": "0xba",
        "accessList": []
      },
      "additionalContracts": [],
      "isFixedGasLimit": false
    },
    {
      "hash": "0x8f6e4c1239474663f99e4c15fc1045ef3e3679ca3b6acceb6a76196efcaf212c",
      "transactionType": "CALL",
      "contractName": "TransparentUpgradeableProxy",
      "contractAddress": "0x92e56d2146D54d5AEcB25CA36c89D027a6ea0D90",
      "function": null,
      "arguments": null,
      "transaction": {
        "type": "0x02",
        "from": "0x207e804758e28f2b3fd6e4219671b327100b82f8",
        "to": "0x92e56d2146d54d5aecb25ca36c89d027a6ea0d90",
        "gas": "0x10eeb",
        "value": "0x0",
        "data": "0x36568abe0000000000000000000000000000000000000000000000000000000000000000000000000000000000000000207e804758e28f2b3fd6e4219671b327100b82f8",
        "nonce": "0xbb",
        "accessList": []
      },
      "additionalContracts": [],
      "isFixedGasLimit": false
    },
    {
      "hash": "0x1d3d9eed30112c32c408305dea8b185419c97d25653d1af3e025cb4b66700fd7",
      "transactionType": "CALL",
      "contractName": "TransparentUpgradeableProxy",
      "contractAddress": "0x29Ab878aEd032e2e2c86FF4A9a9B05e3276cf1f8",
      "function": null,
      "arguments": null,
      "transaction": {
        "type": "0x02",
        "from": "0x207e804758e28f2b3fd6e4219671b327100b82f8",
        "to": "0x29ab878aed032e2e2c86ff4a9a9b05e3276cf1f8",
        "gas": "0x247ff",
        "value": "0x0",
        "data": "0x2f2ff15d65d7a28e3265b37a6474929f336521b332c1681b933f6cb9f3376673440d862a000000000000000000000000432abccb04ddd86db9aa91fa3e03fb566270c9ff",
        "nonce": "0xbc",
        "accessList": []
      },
      "additionalContracts": [],
      "isFixedGasLimit": false
    },
    {
      "hash": "0xab0fe05a26f3d567788f7b6d1560f5e039174a1b68a4faa063165256ad7d8624",
      "transactionType": "CALL",
      "contractName": "TransparentUpgradeableProxy",
      "contractAddress": "0x29Ab878aEd032e2e2c86FF4A9a9B05e3276cf1f8",
      "function": null,
      "arguments": null,
      "transaction": {
        "type": "0x02",
        "from": "0x207e804758e28f2b3fd6e4219671b327100b82f8",
        "to": "0x29ab878aed032e2e2c86ff4a9a9b05e3276cf1f8",
        "gas": "0x247ff",
        "value": "0x0",
        "data": "0x2f2ff15d65d7a28e3265b37a6474929f336521b332c1681b933f6cb9f3376673440d862a00000000000000000000000096fa4e22a56c4a7dbcb09eaacd0f2becd80e24ae",
        "nonce": "0xbd",
        "accessList": []
      },
      "additionalContracts": [],
      "isFixedGasLimit": false
    },
    {
      "hash": "0xb442da97afbaa658aca0bc7f319bd8af91fb441afd7dbd0096b4f4013da2d2d5",
      "transactionType": "CALL",
      "contractName": "TransparentUpgradeableProxy",
      "contractAddress": "0x29Ab878aEd032e2e2c86FF4A9a9B05e3276cf1f8",
      "function": null,
      "arguments": null,
      "transaction": {
        "type": "0x02",
        "from": "0x207e804758e28f2b3fd6e4219671b327100b82f8",
        "to": "0x29ab878aed032e2e2c86ff4a9a9b05e3276cf1f8",
        "gas": "0x134df",
        "value": "0x0",
        "data": "0xd547741f65d7a28e3265b37a6474929f336521b332c1681b933f6cb9f3376673440d862a0000000000000000000000003dc5fcb0ad5835c6059112e51a75b57dba668eb8",
        "nonce": "0xbe",
        "accessList": []
      },
      "additionalContracts": [],
      "isFixedGasLimit": false
    },
    {
      "hash": "0xdf5df9dda516cf879064397785be6e2d0b5adb2627cf027ab0b48d88066f6b79",
      "transactionType": "CALL",
      "contractName": "TransparentUpgradeableProxy",
      "contractAddress": "0x29Ab878aEd032e2e2c86FF4A9a9B05e3276cf1f8",
      "function": null,
      "arguments": null,
      "transaction": {
        "type": "0x02",
        "from": "0x207e804758e28f2b3fd6e4219671b327100b82f8",
        "to": "0x29ab878aed032e2e2c86ff4a9a9b05e3276cf1f8",
        "gas": "0x11062",
        "value": "0x0",
        "data": "0x36568abe65d7a28e3265b37a6474929f336521b332c1681b933f6cb9f3376673440d862a000000000000000000000000207e804758e28f2b3fd6e4219671b327100b82f8",
        "nonce": "0xbf",
        "accessList": []
      },
      "additionalContracts": [],
      "isFixedGasLimit": false
    },
    {
      "hash": "0xfef1072625159432c2a236cb7208534e708c411c27d01cd86a664f7c31bc36af",
      "transactionType": "CALL",
      "contractName": "TransparentUpgradeableProxy",
      "contractAddress": "0x29Ab878aEd032e2e2c86FF4A9a9B05e3276cf1f8",
      "function": null,
      "arguments": null,
      "transaction": {
        "type": "0x02",
        "from": "0x207e804758e28f2b3fd6e4219671b327100b82f8",
        "to": "0x29ab878aed032e2e2c86ff4a9a9b05e3276cf1f8",
        "gas": "0x247ff",
        "value": "0x0",
        "data": "0x2f2ff15d427da25fe773164f88948d3e215c94b6554e2ed5e5f203a821c9f2f6131cf75a0000000000000000000000004e59e778a0fb77fbb305637435c62faed9aed40f",
        "nonce": "0xc0",
        "accessList": []
      },
      "additionalContracts": [],
      "isFixedGasLimit": false
    },
    {
      "hash": "0x43dafb9dda36dc22f6730872ad8b99d378fcbab494fed6ff8abbc03b40517a78",
      "transactionType": "CALL",
      "contractName": "TransparentUpgradeableProxy",
      "contractAddress": "0x29Ab878aEd032e2e2c86FF4A9a9B05e3276cf1f8",
      "function": null,
      "arguments": null,
      "transaction": {
        "type": "0x02",
        "from": "0x207e804758e28f2b3fd6e4219671b327100b82f8",
        "to": "0x29ab878aed032e2e2c86ff4a9a9b05e3276cf1f8",
        "gas": "0x11062",
        "value": "0x0",
        "data": "0x36568abe427da25fe773164f88948d3e215c94b6554e2ed5e5f203a821c9f2f6131cf75a000000000000000000000000207e804758e28f2b3fd6e4219671b327100b82f8",
        "nonce": "0xc1",
        "accessList": []
      },
      "additionalContracts": [],
      "isFixedGasLimit": false
    },
    {
      "hash": "0xcda87e0fd2464cbaa618c636ad698be1b11179cac05341437b16175e64490ebb",
      "transactionType": "CALL",
      "contractName": "TransparentUpgradeableProxy",
      "contractAddress": "0x29Ab878aEd032e2e2c86FF4A9a9B05e3276cf1f8",
      "function": null,
      "arguments": null,
      "transaction": {
        "type": "0x02",
        "from": "0x207e804758e28f2b3fd6e4219671b327100b82f8",
        "to": "0x29ab878aed032e2e2c86ff4a9a9b05e3276cf1f8",
        "gas": "0xf4c7",
        "value": "0x0",
        "data": "0xd547741f0000000000000000000000000000000000000000000000000000000000000000000000000000000000000000432abccb04ddd86db9aa91fa3e03fb566270c9ff",
        "nonce": "0xc2",
        "accessList": []
      },
      "additionalContracts": [],
      "isFixedGasLimit": false
    },
    {
      "hash": "0xe1d6b3f901fd8a8b205ac00f93a861f95a89dbaf2def0253f4027d3b5adad9e6",
      "transactionType": "CALL",
      "contractName": "TransparentUpgradeableProxy",
      "contractAddress": "0x29Ab878aEd032e2e2c86FF4A9a9B05e3276cf1f8",
      "function": null,
      "arguments": null,
      "transaction": {
        "type": "0x02",
        "from": "0x207e804758e28f2b3fd6e4219671b327100b82f8",
        "to": "0x29ab878aed032e2e2c86ff4a9a9b05e3276cf1f8",
        "gas": "0x11ea7",
        "value": "0x0",
        "data": "0x36568abe0000000000000000000000000000000000000000000000000000000000000000000000000000000000000000207e804758e28f2b3fd6e4219671b327100b82f8",
        "nonce": "0xc3",
        "accessList": []
      },
      "additionalContracts": [],
      "isFixedGasLimit": false
    },
    {
      "hash": "0xda62f59930a7d3f8247c50687db306dc9c7956005c42852454d596461b9be493",
      "transactionType": "CALL",
      "contractName": "TransparentUpgradeableProxy",
      "contractAddress": "0x1766be66fBb0a1883d41B4cfB0a533c5249D3b82",
      "function": null,
      "arguments": null,
      "transaction": {
        "type": "0x02",
        "from": "0x207e804758e28f2b3fd6e4219671b327100b82f8",
        "to": "0x1766be66fbb0a1883d41b4cfb0a533c5249d3b82",
        "gas": "0x26a3b",
        "value": "0x0",
        "data": "0x2f2ff15da04f8e5e9269ada37cd14db144b4a440e16627eb30d392f72521786dd7cc20680000000000000000000000004e59e778a0fb77fbb305637435c62faed9aed40f",
        "nonce": "0xc4",
        "accessList": []
      },
      "additionalContracts": [],
      "isFixedGasLimit": false
    },
    {
      "hash": "0x59005347cd1cf774ad32d625b76670bd2d4bdaab167a667189d6e7c1760f7c55",
      "transactionType": "CALL",
      "contractName": "TransparentUpgradeableProxy",
      "contractAddress": "0x1766be66fBb0a1883d41B4cfB0a533c5249D3b82",
      "function": null,
      "arguments": null,
      "transaction": {
        "type": "0x02",
        "from": "0x207e804758e28f2b3fd6e4219671b327100b82f8",
        "to": "0x1766be66fbb0a1883d41b4cfb0a533c5249d3b82",
        "gas": "0x123e6",
        "value": "0x0",
        "data": "0xd547741fa04f8e5e9269ada37cd14db144b4a440e16627eb30d392f72521786dd7cc2068000000000000000000000000432abccb04ddd86db9aa91fa3e03fb566270c9ff",
        "nonce": "0xc5",
        "accessList": []
      },
      "additionalContracts": [],
      "isFixedGasLimit": false
    },
    {
      "hash": "0x7b39a2e7735827408ad3ee6454505f9ba3e8ecf3360ff4168dd0af9e33c66685",
      "transactionType": "CALL",
      "contractName": "TransparentUpgradeableProxy",
      "contractAddress": "0x1766be66fBb0a1883d41B4cfB0a533c5249D3b82",
      "function": null,
      "arguments": null,
      "transaction": {
        "type": "0x02",
        "from": "0x207e804758e28f2b3fd6e4219671b327100b82f8",
        "to": "0x1766be66fbb0a1883d41b4cfb0a533c5249d3b82",
        "gas": "0x11094",
        "value": "0x0",
        "data": "0x36568abea04f8e5e9269ada37cd14db144b4a440e16627eb30d392f72521786dd7cc2068000000000000000000000000207e804758e28f2b3fd6e4219671b327100b82f8",
        "nonce": "0xc6",
        "accessList": []
      },
      "additionalContracts": [],
      "isFixedGasLimit": false
    },
    {
      "hash": "0x075be4659bad8e1c8c1ea0241bc6bdb35617768d64720feeaab4a9f999c6b043",
      "transactionType": "CALL",
      "contractName": "TransparentUpgradeableProxy",
      "contractAddress": "0x1766be66fBb0a1883d41B4cfB0a533c5249D3b82",
      "function": null,
      "arguments": null,
      "transaction": {
        "type": "0x02",
        "from": "0x207e804758e28f2b3fd6e4219671b327100b82f8",
        "to": "0x1766be66fbb0a1883d41b4cfb0a533c5249d3b82",
        "gas": "0xf4f9",
        "value": "0x0",
        "data": "0xd547741f0000000000000000000000000000000000000000000000000000000000000000000000000000000000000000432abccb04ddd86db9aa91fa3e03fb566270c9ff",
        "nonce": "0xc7",
        "accessList": []
      },
      "additionalContracts": [],
      "isFixedGasLimit": false
    },
    {
      "hash": "0xbc94393ce7e50ce820de5bdd83acc1cdb2984fb446573705f4d039b4ad4a4823",
      "transactionType": "CALL",
      "contractName": "TransparentUpgradeableProxy",
      "contractAddress": "0x1766be66fBb0a1883d41B4cfB0a533c5249D3b82",
      "function": null,
      "arguments": null,
      "transaction": {
        "type": "0x02",
        "from": "0x207e804758e28f2b3fd6e4219671b327100b82f8",
        "to": "0x1766be66fbb0a1883d41b4cfb0a533c5249d3b82",
        "gas": "0x10eeb",
        "value": "0x0",
        "data": "0x36568abe0000000000000000000000000000000000000000000000000000000000000000000000000000000000000000207e804758e28f2b3fd6e4219671b327100b82f8",
        "nonce": "0xc8",
        "accessList": []
      },
      "additionalContracts": [],
      "isFixedGasLimit": false
    },
    {
      "hash": "0x1fd981cad8e6701ddd65f606da489582d124e5ddec96639bcb1ec2a810c7992d",
      "transactionType": "CALL",
      "contractName": "TransparentUpgradeableProxy",
      "contractAddress": "0xD4e11C28E04c0c2bf370b7a9989498B7eA02493f",
      "function": null,
      "arguments": null,
      "transaction": {
        "type": "0x02",
        "from": "0x207e804758e28f2b3fd6e4219671b327100b82f8",
        "to": "0xd4e11c28e04c0c2bf370b7a9989498b7ea02493f",
        "gas": "0x26a3b",
        "value": "0x0",
        "data": "0x2f2ff15dcc8edc991cb080954074ef217f195cb7b2d172dd844d3b763f78014408eae2240000000000000000000000004e59e778a0fb77fbb305637435c62faed9aed40f",
        "nonce": "0xc9",
        "accessList": []
      },
      "additionalContracts": [],
      "isFixedGasLimit": false
    },
    {
      "hash": "0xa45fd7f092590dd90835defec2c2b8216263d52f9baaa46038006f5c2fb3c2fa",
      "transactionType": "CALL",
      "contractName": "TransparentUpgradeableProxy",
      "contractAddress": "0xD4e11C28E04c0c2bf370b7a9989498B7eA02493f",
      "function": null,
      "arguments": null,
      "transaction": {
        "type": "0x02",
        "from": "0x207e804758e28f2b3fd6e4219671b327100b82f8",
        "to": "0xd4e11c28e04c0c2bf370b7a9989498b7ea02493f",
        "gas": "0x1204e",
        "value": "0x0",
        "data": "0x36568abecc8edc991cb080954074ef217f195cb7b2d172dd844d3b763f78014408eae224000000000000000000000000207e804758e28f2b3fd6e4219671b327100b82f8",
        "nonce": "0xca",
        "accessList": []
      },
      "additionalContracts": [],
      "isFixedGasLimit": false
    },
    {
      "hash": "0x908a443716c7a1004e59ba63d35f4a7e71c827be3e52ba709caeb4f715ad61ec",
      "transactionType": "CALL",
      "contractName": "TransparentUpgradeableProxy",
      "contractAddress": "0xD4e11C28E04c0c2bf370b7a9989498B7eA02493f",
      "function": null,
      "arguments": null,
      "transaction": {
        "type": "0x02",
        "from": "0x207e804758e28f2b3fd6e4219671b327100b82f8",
        "to": "0xd4e11c28e04c0c2bf370b7a9989498b7ea02493f",
        "gas": "0x10361",
        "value": "0x0",
        "data": "0xd547741f0000000000000000000000000000000000000000000000000000000000000000000000000000000000000000432abccb04ddd86db9aa91fa3e03fb566270c9ff",
        "nonce": "0xcb",
        "accessList": []
      },
      "additionalContracts": [],
      "isFixedGasLimit": false
    },
    {
      "hash": "0x85c526c835283db4496b72ded6840959fc1982fee1bf44b3ea5f4d082b65726f",
      "transactionType": "CALL",
      "contractName": "TransparentUpgradeableProxy",
      "contractAddress": "0xD4e11C28E04c0c2bf370b7a9989498B7eA02493f",
      "function": null,
      "arguments": null,
      "transaction": {
        "type": "0x02",
        "from": "0x207e804758e28f2b3fd6e4219671b327100b82f8",
        "to": "0xd4e11c28e04c0c2bf370b7a9989498b7ea02493f",
        "gas": "0x10ea0",
        "value": "0x0",
        "data": "0x36568abe0000000000000000000000000000000000000000000000000000000000000000000000000000000000000000207e804758e28f2b3fd6e4219671b327100b82f8",
        "nonce": "0xcc",
        "accessList": []
      },
      "additionalContracts": [],
      "isFixedGasLimit": false
    },
    {
      "hash": "0xdd3b2b9b4cb86e50f195306c18c760ce5ba2e4168797cef8eaec15e7e7fc8740",
      "transactionType": "CALL",
      "contractName": "TransparentUpgradeableProxy",
      "contractAddress": "0xD6E4aA932147A3FE5311dA1b67D9e73da06F9cEf",
      "function": null,
      "arguments": null,
      "transaction": {
        "type": "0x02",
        "from": "0x207e804758e28f2b3fd6e4219671b327100b82f8",
        "to": "0xd6e4aa932147a3fe5311da1b67d9e73da06f9cef",
        "gas": "0x26a3b",
        "value": "0x0",
        "data": "0x2f2ff15dcc8edc991cb080954074ef217f195cb7b2d172dd844d3b763f78014408eae2240000000000000000000000004e59e778a0fb77fbb305637435c62faed9aed40f",
        "nonce": "0xcd",
        "accessList": []
      },
      "additionalContracts": [],
      "isFixedGasLimit": false
    },
    {
      "hash": "0xab0dc0445f35f54d72e1aca060002d0bdcdb250d809c4d1ae99fd97840c7f021",
      "transactionType": "CALL",
      "contractName": "TransparentUpgradeableProxy",
      "contractAddress": "0xD6E4aA932147A3FE5311dA1b67D9e73da06F9cEf",
      "function": null,
      "arguments": null,
      "transaction": {
        "type": "0x02",
        "from": "0x207e804758e28f2b3fd6e4219671b327100b82f8",
        "to": "0xd6e4aa932147a3fe5311da1b67d9e73da06f9cef",
        "gas": "0x1204e",
        "value": "0x0",
        "data": "0x36568abecc8edc991cb080954074ef217f195cb7b2d172dd844d3b763f78014408eae224000000000000000000000000207e804758e28f2b3fd6e4219671b327100b82f8",
        "nonce": "0xce",
        "accessList": []
      },
      "additionalContracts": [],
      "isFixedGasLimit": false
    },
    {
      "hash": "0x4619b0f7ab8c2c64042e97fe3ce3983bf094fe1726491d0793786b2b9a27bd41",
      "transactionType": "CALL",
      "contractName": "TransparentUpgradeableProxy",
      "contractAddress": "0xD6E4aA932147A3FE5311dA1b67D9e73da06F9cEf",
      "function": null,
      "arguments": null,
      "transaction": {
        "type": "0x02",
        "from": "0x207e804758e28f2b3fd6e4219671b327100b82f8",
        "to": "0xd6e4aa932147a3fe5311da1b67d9e73da06f9cef",
        "gas": "0x10361",
        "value": "0x0",
        "data": "0xd547741f0000000000000000000000000000000000000000000000000000000000000000000000000000000000000000432abccb04ddd86db9aa91fa3e03fb566270c9ff",
        "nonce": "0xcf",
        "accessList": []
      },
      "additionalContracts": [],
      "isFixedGasLimit": false
    },
    {
      "hash": "0xceadfbb077d5a1494f85c56df13e0c55dfe5488f1c7947d5baadcfc38009473f",
      "transactionType": "CALL",
      "contractName": "TransparentUpgradeableProxy",
      "contractAddress": "0xD6E4aA932147A3FE5311dA1b67D9e73da06F9cEf",
      "function": null,
      "arguments": null,
      "transaction": {
        "type": "0x02",
        "from": "0x207e804758e28f2b3fd6e4219671b327100b82f8",
        "to": "0xd6e4aa932147a3fe5311da1b67d9e73da06f9cef",
        "gas": "0x10ea0",
        "value": "0x0",
        "data": "0x36568abe0000000000000000000000000000000000000000000000000000000000000000000000000000000000000000207e804758e28f2b3fd6e4219671b327100b82f8",
        "nonce": "0xd0",
        "accessList": []
      },
      "additionalContracts": [],
      "isFixedGasLimit": false
    },
    {
      "hash": "0xbb94097e6f3b7c1c824b870cd53a5e61f9d870225ce19fb7215e722067c6beb7",
      "transactionType": "CALL",
      "contractName": "TransparentUpgradeableProxy",
      "contractAddress": "0xe3cBd06D7dadB3F4e6557bAb7EdD924CD1489E8f",
      "function": null,
      "arguments": null,
      "transaction": {
        "type": "0x02",
        "from": "0x207e804758e28f2b3fd6e4219671b327100b82f8",
        "to": "0xe3cbd06d7dadb3f4e6557bab7edd924cd1489e8f",
        "gas": "0x2481f",
        "value": "0x0",
        "data": "0x2f2ff15d8ea5b4dbd68db0bf23bf4cda958b61a749f8c5aec6f2912d75a03246753ddd16000000000000000000000000432abccb04ddd86db9aa91fa3e03fb566270c9ff",
        "nonce": "0xd1",
        "accessList": []
      },
      "additionalContracts": [],
      "isFixedGasLimit": false
    },
    {
      "hash": "0xfdb6fab885734e936b8721e90474eb51c2b69bdf3e44034c5721d3c4e132fc74",
      "transactionType": "CALL",
      "contractName": "TransparentUpgradeableProxy",
      "contractAddress": "0xe3cBd06D7dadB3F4e6557bAb7EdD924CD1489E8f",
      "function": null,
      "arguments": null,
      "transaction": {
        "type": "0x02",
        "from": "0x207e804758e28f2b3fd6e4219671b327100b82f8",
        "to": "0xe3cbd06d7dadb3f4e6557bab7edd924cd1489e8f",
        "gas": "0x11094",
        "value": "0x0",
        "data": "0x36568abe8ea5b4dbd68db0bf23bf4cda958b61a749f8c5aec6f2912d75a03246753ddd16000000000000000000000000207e804758e28f2b3fd6e4219671b327100b82f8",
        "nonce": "0xd2",
        "accessList": []
      },
      "additionalContracts": [],
      "isFixedGasLimit": false
    },
    {
      "hash": "0x9b13c456b25d6a4a4e8e1c2e8594044e89589cfdc427396f8d289d1e572308d6",
      "transactionType": "CALL",
      "contractName": "TransparentUpgradeableProxy",
      "contractAddress": "0xe3cBd06D7dadB3F4e6557bAb7EdD924CD1489E8f",
      "function": null,
      "arguments": null,
      "transaction": {
        "type": "0x02",
        "from": "0x207e804758e28f2b3fd6e4219671b327100b82f8",
        "to": "0xe3cbd06d7dadb3f4e6557bab7edd924cd1489e8f",
        "gas": "0x2481f",
        "value": "0x0",
        "data": "0x2f2ff15da6b5d83d32632203555cb9b2c2f68a8d94da48cadd9266ac0d17babedb52ea5b0000000000000000000000004e59e778a0fb77fbb305637435c62faed9aed40f",
        "nonce": "0xd3",
        "accessList": []
      },
      "additionalContracts": [],
      "isFixedGasLimit": false
    },
    {
      "hash": "0x24e189835c4644a8ef77f28fbccc14811c2651208e15e91456748c2ebbc28c54",
      "transactionType": "CALL",
      "contractName": "TransparentUpgradeableProxy",
      "contractAddress": "0xe3cBd06D7dadB3F4e6557bAb7EdD924CD1489E8f",
      "function": null,
      "arguments": null,
      "transaction": {
        "type": "0x02",
        "from": "0x207e804758e28f2b3fd6e4219671b327100b82f8",
        "to": "0xe3cbd06d7dadb3f4e6557bab7edd924cd1489e8f",
        "gas": "0x123e6",
        "value": "0x0",
        "data": "0xd547741fa6b5d83d32632203555cb9b2c2f68a8d94da48cadd9266ac0d17babedb52ea5b000000000000000000000000432abccb04ddd86db9aa91fa3e03fb566270c9ff",
        "nonce": "0xd4",
        "accessList": []
      },
      "additionalContracts": [],
      "isFixedGasLimit": false
    },
    {
      "hash": "0xe9e5204e52b0df5881cf84f69c916a8e9edb7d52c99ffd43fdfd58f6e36a8b61",
      "transactionType": "CALL",
      "contractName": "TransparentUpgradeableProxy",
      "contractAddress": "0xe3cBd06D7dadB3F4e6557bAb7EdD924CD1489E8f",
      "function": null,
      "arguments": null,
      "transaction": {
        "type": "0x02",
        "from": "0x207e804758e28f2b3fd6e4219671b327100b82f8",
        "to": "0xe3cbd06d7dadb3f4e6557bab7edd924cd1489e8f",
        "gas": "0x11094",
        "value": "0x0",
        "data": "0x36568abea6b5d83d32632203555cb9b2c2f68a8d94da48cadd9266ac0d17babedb52ea5b000000000000000000000000207e804758e28f2b3fd6e4219671b327100b82f8",
        "nonce": "0xd5",
        "accessList": []
      },
      "additionalContracts": [],
      "isFixedGasLimit": false
    },
    {
      "hash": "0x31dd364b228d0eb075545cb792e5d50c811aea6f54d7c3b28794238d1c915e35",
      "transactionType": "CALL",
      "contractName": "TransparentUpgradeableProxy",
      "contractAddress": "0xe3cBd06D7dadB3F4e6557bAb7EdD924CD1489E8f",
      "function": null,
      "arguments": null,
      "transaction": {
        "type": "0x02",
        "from": "0x207e804758e28f2b3fd6e4219671b327100b82f8",
        "to": "0xe3cbd06d7dadb3f4e6557bab7edd924cd1489e8f",
        "gas": "0xf4f9",
        "value": "0x0",
        "data": "0xd547741f0000000000000000000000000000000000000000000000000000000000000000000000000000000000000000432abccb04ddd86db9aa91fa3e03fb566270c9ff",
        "nonce": "0xd6",
        "accessList": []
      },
      "additionalContracts": [],
      "isFixedGasLimit": false
    },
    {
      "hash": "0xfde90bf553c3f15c7a3d9f867b2f7ba0df59b2a994680ae77511332adf6bf25c",
      "transactionType": "CALL",
      "contractName": "TransparentUpgradeableProxy",
      "contractAddress": "0xe3cBd06D7dadB3F4e6557bAb7EdD924CD1489E8f",
      "function": null,
      "arguments": null,
      "transaction": {
        "type": "0x02",
        "from": "0x207e804758e28f2b3fd6e4219671b327100b82f8",
        "to": "0xe3cbd06d7dadb3f4e6557bab7edd924cd1489e8f",
        "gas": "0x10eec",
        "value": "0x0",
        "data": "0x36568abe0000000000000000000000000000000000000000000000000000000000000000000000000000000000000000207e804758e28f2b3fd6e4219671b327100b82f8",
        "nonce": "0xd7",
        "accessList": []
      },
      "additionalContracts": [],
      "isFixedGasLimit": false
    },
    {
      "hash": "0xa9b1bbe5bf4396aadfb890714b1a2b1b867fd15e3950ad748e5265adc41efc67",
      "transactionType": "CALL",
      "contractName": "TransparentUpgradeableProxy",
      "contractAddress": "0x38fDF7b489316e03eD8754ad339cb5c4483FDcf9",
      "function": null,
      "arguments": null,
      "transaction": {
        "type": "0x02",
        "from": "0x207e804758e28f2b3fd6e4219671b327100b82f8",
        "to": "0x38fdf7b489316e03ed8754ad339cb5c4483fdcf9",
        "gas": "0x247ff",
        "value": "0x0",
        "data": "0x2f2ff15d241ecf16d79d0f8dbfb92cbc07fe17840425976cf0667f022fe9877caa831b080000000000000000000000004e59e778a0fb77fbb305637435c62faed9aed40f",
        "nonce": "0xd8",
        "accessList": []
      },
      "additionalContracts": [],
      "isFixedGasLimit": false
    },
    {
      "hash": "0xe8c18f587b474d3610d8b4e1712da1c1410c5fb2bc15123a47737fa9782b7746",
      "transactionType": "CALL",
      "contractName": "TransparentUpgradeableProxy",
      "contractAddress": "0x38fDF7b489316e03eD8754ad339cb5c4483FDcf9",
      "function": null,
      "arguments": null,
      "transaction": {
        "type": "0x02",
        "from": "0x207e804758e28f2b3fd6e4219671b327100b82f8",
        "to": "0x38fdf7b489316e03ed8754ad339cb5c4483fdcf9",
        "gas": "0x123e6",
        "value": "0x0",
        "data": "0xd547741f241ecf16d79d0f8dbfb92cbc07fe17840425976cf0667f022fe9877caa831b08000000000000000000000000432abccb04ddd86db9aa91fa3e03fb566270c9ff",
        "nonce": "0xd9",
        "accessList": []
      },
      "additionalContracts": [],
      "isFixedGasLimit": false
    },
    {
      "hash": "0xc57c4985516b08b38a1702ddba1f19b3a58ce12c651bb9758055546df9d4f698",
      "transactionType": "CALL",
      "contractName": "TransparentUpgradeableProxy",
      "contractAddress": "0x38fDF7b489316e03eD8754ad339cb5c4483FDcf9",
      "function": null,
      "arguments": null,
      "transaction": {
        "type": "0x02",
        "from": "0x207e804758e28f2b3fd6e4219671b327100b82f8",
        "to": "0x38fdf7b489316e03ed8754ad339cb5c4483fdcf9",
        "gas": "0x120b6",
        "value": "0x0",
        "data": "0x36568abe241ecf16d79d0f8dbfb92cbc07fe17840425976cf0667f022fe9877caa831b08000000000000000000000000207e804758e28f2b3fd6e4219671b327100b82f8",
        "nonce": "0xda",
        "accessList": []
      },
      "additionalContracts": [],
      "isFixedGasLimit": false
    },
    {
      "hash": "0x6b6fe92878c9f80bd7d86098c8cf392bde6066fea98a8acfef86533de015b143",
      "transactionType": "CALL",
      "contractName": "TransparentUpgradeableProxy",
      "contractAddress": "0x38fDF7b489316e03eD8754ad339cb5c4483FDcf9",
      "function": null,
      "arguments": null,
      "transaction": {
        "type": "0x02",
        "from": "0x207e804758e28f2b3fd6e4219671b327100b82f8",
        "to": "0x38fdf7b489316e03ed8754ad339cb5c4483fdcf9",
        "gas": "0x247ff",
        "value": "0x0",
        "data": "0x2f2ff15def6d3da212345543d99125b43af0bc451d30ffaf90d4560558d702b21179a70f0000000000000000000000004e59e778a0fb77fbb305637435c62faed9aed40f",
        "nonce": "0xdb",
        "accessList": []
      },
      "additionalContracts": [],
      "isFixedGasLimit": false
    },
    {
      "hash": "0x6a1e28fb2b16cb1704eaf9b08841565988f84dbb16f278462ee24d31cbed7c8a",
      "transactionType": "CALL",
      "contractName": "TransparentUpgradeableProxy",
      "contractAddress": "0x38fDF7b489316e03eD8754ad339cb5c4483FDcf9",
      "function": null,
      "arguments": null,
      "transaction": {
        "type": "0x02",
        "from": "0x207e804758e28f2b3fd6e4219671b327100b82f8",
        "to": "0x38fdf7b489316e03ed8754ad339cb5c4483fdcf9",
        "gas": "0x120b6",
        "value": "0x0",
        "data": "0x36568abeef6d3da212345543d99125b43af0bc451d30ffaf90d4560558d702b21179a70f000000000000000000000000207e804758e28f2b3fd6e4219671b327100b82f8",
        "nonce": "0xdc",
        "accessList": []
      },
      "additionalContracts": [],
      "isFixedGasLimit": false
    },
    {
      "hash": "0x70680b5d5bbe4c8c6c7f8d95395eb5d4254727cc7e19bc2c79097c561ed1396b",
      "transactionType": "CALL",
      "contractName": "TransparentUpgradeableProxy",
      "contractAddress": "0x38fDF7b489316e03eD8754ad339cb5c4483FDcf9",
      "function": null,
      "arguments": null,
      "transaction": {
        "type": "0x02",
        "from": "0x207e804758e28f2b3fd6e4219671b327100b82f8",
        "to": "0x38fdf7b489316e03ed8754ad339cb5c4483fdcf9",
        "gas": "0xf4f9",
        "value": "0x0",
        "data": "0xd547741f0000000000000000000000000000000000000000000000000000000000000000000000000000000000000000432abccb04ddd86db9aa91fa3e03fb566270c9ff",
        "nonce": "0xdd",
        "accessList": []
      },
      "additionalContracts": [],
      "isFixedGasLimit": false
    },
    {
      "hash": "0xca98d25ea4a73790a8f44b35efeb147950478e4663af73ef224704a41112431e",
      "transactionType": "CALL",
      "contractName": "TransparentUpgradeableProxy",
      "contractAddress": "0x38fDF7b489316e03eD8754ad339cb5c4483FDcf9",
      "function": null,
      "arguments": null,
      "transaction": {
        "type": "0x02",
        "from": "0x207e804758e28f2b3fd6e4219671b327100b82f8",
        "to": "0x38fdf7b489316e03ed8754ad339cb5c4483fdcf9",
        "gas": "0x10f03",
        "value": "0x0",
        "data": "0x36568abe0000000000000000000000000000000000000000000000000000000000000000000000000000000000000000207e804758e28f2b3fd6e4219671b327100b82f8",
        "nonce": "0xde",
        "accessList": []
      },
      "additionalContracts": [],
      "isFixedGasLimit": false
    },
    {
      "hash": "0x6015a331522b878b945f7472eecdfaf149ccbeaa39984b90380c1a20071e8f57",
      "transactionType": "CALL",
      "contractName": "TransparentUpgradeableProxy",
      "contractAddress": "0xd5F7838F5C461fefF7FE49ea5ebaF7728bB0ADfa",
      "function": null,
      "arguments": null,
      "transaction": {
        "type": "0x02",
        "from": "0x207e804758e28f2b3fd6e4219671b327100b82f8",
        "to": "0xd5f7838f5c461feff7fe49ea5ebaf7728bb0adfa",
        "gas": "0x10347",
        "value": "0x0",
        "data": "0xd547741f0000000000000000000000000000000000000000000000000000000000000000000000000000000000000000432abccb04ddd86db9aa91fa3e03fb566270c9ff",
        "nonce": "0xdf",
        "accessList": []
      },
      "additionalContracts": [],
      "isFixedGasLimit": false
    },
    {
      "hash": "0xd418b66b0d5fa18e64399eb1dfbe354f830bb49060de24e8986b982d16540461",
      "transactionType": "CALL",
      "contractName": "TransparentUpgradeableProxy",
      "contractAddress": "0xd5F7838F5C461fefF7FE49ea5ebaF7728bB0ADfa",
      "function": null,
      "arguments": null,
      "transaction": {
        "type": "0x02",
        "from": "0x207e804758e28f2b3fd6e4219671b327100b82f8",
        "to": "0xd5f7838f5c461feff7fe49ea5ebaf7728bb0adfa",
        "gas": "0x10eb9",
        "value": "0x0",
        "data": "0x36568abe0000000000000000000000000000000000000000000000000000000000000000000000000000000000000000207e804758e28f2b3fd6e4219671b327100b82f8",
        "nonce": "0xe0",
        "accessList": []
      },
      "additionalContracts": [],
      "isFixedGasLimit": false
    },
    {
      "hash": "0xaa3cac4190685274f93b443d953f28e317eab668444fe14454c019c64e129935",
      "transactionType": "CALL",
      "contractName": "TimelockController",
      "contractAddress": "0xc26016f1166bE7b6c5611AAB104122E0f6c2aCE2",
      "function": "revokeRole(bytes32,address)",
      "arguments": [
        "0xd8aa0f3194971a2a116679f7c2090f6939c8d4e01a2a8d7e41d55e5351469e63",
        "0x432ABcCb04DdD86Db9aA91FA3E03Fb566270c9ff"
      ],
      "transaction": {
        "type": "0x02",
        "from": "0x207e804758e28f2b3fd6e4219671b327100b82f8",
        "to": "0xc26016f1166be7b6c5611aab104122e0f6c2ace2",
        "gas": "0xa7ca",
        "value": "0x0",
        "data": "0xd547741fd8aa0f3194971a2a116679f7c2090f6939c8d4e01a2a8d7e41d55e5351469e63000000000000000000000000432abccb04ddd86db9aa91fa3e03fb566270c9ff",
        "nonce": "0xe1",
        "accessList": []
      },
      "additionalContracts": [],
      "isFixedGasLimit": false
    },
    {
      "hash": "0x784531380853d61dfea2a2613cacc47cab4f7c884141efe96deb97299b860aad",
      "transactionType": "CALL",
      "contractName": "TimelockController",
      "contractAddress": "0xc26016f1166bE7b6c5611AAB104122E0f6c2aCE2",
      "function": "renounceRole(bytes32,address)",
      "arguments": [
        "0xd8aa0f3194971a2a116679f7c2090f6939c8d4e01a2a8d7e41d55e5351469e63",
        "0x207E804758e28F2b3fD6E4219671B327100b82f8"
      ],
      "transaction": {
        "type": "0x02",
        "from": "0x207e804758e28f2b3fd6e4219671b327100b82f8",
        "to": "0xc26016f1166be7b6c5611aab104122e0f6c2ace2",
        "gas": "0x866e",
        "value": "0x0",
        "data": "0x36568abed8aa0f3194971a2a116679f7c2090f6939c8d4e01a2a8d7e41d55e5351469e63000000000000000000000000207e804758e28f2b3fd6e4219671b327100b82f8",
        "nonce": "0xe2",
        "accessList": []
      },
      "additionalContracts": [],
      "isFixedGasLimit": false
    },
    {
      "hash": "0x00765a9c230a74cbf062c6bf512b31547108a614a6a582b2ae248f2c03f823f6",
      "transactionType": "CALL",
      "contractName": "TimelockController",
      "contractAddress": "0xc26016f1166bE7b6c5611AAB104122E0f6c2aCE2",
      "function": "revokeRole(bytes32,address)",
      "arguments": [
        "0xb09aa5aeb3702cfd50b6b62bc4532604938f21248a27a1d5ca736082b6819cc1",
        "0x432ABcCb04DdD86Db9aA91FA3E03Fb566270c9ff"
      ],
      "transaction": {
        "type": "0x02",
        "from": "0x207e804758e28f2b3fd6e4219671b327100b82f8",
        "to": "0xc26016f1166be7b6c5611aab104122e0f6c2ace2",
        "gas": "0xa7ca",
        "value": "0x0",
        "data": "0xd547741fb09aa5aeb3702cfd50b6b62bc4532604938f21248a27a1d5ca736082b6819cc1000000000000000000000000432abccb04ddd86db9aa91fa3e03fb566270c9ff",
        "nonce": "0xe3",
        "accessList": []
      },
      "additionalContracts": [],
      "isFixedGasLimit": false
    },
    {
      "hash": "0x6a4a01945f40ca4d01edeab7e67b4ed3823af0fc1078f55a90214f3e8da7084e",
      "transactionType": "CALL",
      "contractName": "TimelockController",
      "contractAddress": "0xc26016f1166bE7b6c5611AAB104122E0f6c2aCE2",
      "function": "renounceRole(bytes32,address)",
      "arguments": [
        "0xb09aa5aeb3702cfd50b6b62bc4532604938f21248a27a1d5ca736082b6819cc1",
        "0x207E804758e28F2b3fD6E4219671B327100b82f8"
      ],
      "transaction": {
        "type": "0x02",
        "from": "0x207e804758e28f2b3fd6e4219671b327100b82f8",
        "to": "0xc26016f1166be7b6c5611aab104122e0f6c2ace2",
        "gas": "0x866e",
        "value": "0x0",
        "data": "0x36568abeb09aa5aeb3702cfd50b6b62bc4532604938f21248a27a1d5ca736082b6819cc1000000000000000000000000207e804758e28f2b3fd6e4219671b327100b82f8",
        "nonce": "0xe4",
        "accessList": []
      },
      "additionalContracts": [],
      "isFixedGasLimit": false
    },
    {
      "hash": "0x968f534e98e8e524d32fb16ac022900eff6b788e100cc3f1c2b9e3b53597a7aa",
      "transactionType": "CALL",
      "contractName": "TimelockController",
      "contractAddress": "0xc26016f1166bE7b6c5611AAB104122E0f6c2aCE2",
      "function": "revokeRole(bytes32,address)",
      "arguments": [
        "0x5f58e3a2316349923ce3780f8d587db2d72378aed66a8261c916544fa6846ca5",
        "0x432ABcCb04DdD86Db9aA91FA3E03Fb566270c9ff"
      ],
      "transaction": {
        "type": "0x02",
        "from": "0x207e804758e28f2b3fd6e4219671b327100b82f8",
        "to": "0xc26016f1166be7b6c5611aab104122e0f6c2ace2",
        "gas": "0xa7ca",
        "value": "0x0",
        "data": "0xd547741f5f58e3a2316349923ce3780f8d587db2d72378aed66a8261c916544fa6846ca5000000000000000000000000432abccb04ddd86db9aa91fa3e03fb566270c9ff",
        "nonce": "0xe5",
        "accessList": []
      },
      "additionalContracts": [],
      "isFixedGasLimit": false
    },
    {
      "hash": "0x05cfa0aeb02dcdd34197d82d76e88eee8c3db8c9ff64f914d70f87e48de49d4c",
      "transactionType": "CALL",
      "contractName": "TimelockController",
      "contractAddress": "0xc26016f1166bE7b6c5611AAB104122E0f6c2aCE2",
      "function": "renounceRole(bytes32,address)",
      "arguments": [
        "0x5f58e3a2316349923ce3780f8d587db2d72378aed66a8261c916544fa6846ca5",
        "0x207E804758e28F2b3fD6E4219671B327100b82f8"
      ],
      "transaction": {
        "type": "0x02",
        "from": "0x207e804758e28f2b3fd6e4219671b327100b82f8",
        "to": "0xc26016f1166be7b6c5611aab104122e0f6c2ace2",
        "gas": "0x866e",
        "value": "0x0",
        "data": "0x36568abe5f58e3a2316349923ce3780f8d587db2d72378aed66a8261c916544fa6846ca5000000000000000000000000207e804758e28f2b3fd6e4219671b327100b82f8",
        "nonce": "0xe6",
        "accessList": []
      },
      "additionalContracts": [],
      "isFixedGasLimit": false
    },
    {
      "hash": "0x832f48e6496ee7bedff866a67fa61cde1ac5c2ed5553edd68f2b6f72c264d2ac",
      "transactionType": "CALL",
      "contractName": "TimelockController",
      "contractAddress": "0xc26016f1166bE7b6c5611AAB104122E0f6c2aCE2",
      "function": "renounceRole(bytes32,address)",
      "arguments": [
        "0xfd643c72710c63c0180259aba6b2d05451e3591a24e58b62239378085726f783",
        "0x207E804758e28F2b3fD6E4219671B327100b82f8"
      ],
      "transaction": {
        "type": "0x02",
        "from": "0x207e804758e28f2b3fd6e4219671b327100b82f8",
        "to": "0xc26016f1166be7b6c5611aab104122e0f6c2ace2",
        "gas": "0x866e",
        "value": "0x0",
        "data": "0x36568abefd643c72710c63c0180259aba6b2d05451e3591a24e58b62239378085726f783000000000000000000000000207e804758e28f2b3fd6e4219671b327100b82f8",
        "nonce": "0xe7",
        "accessList": []
      },
      "additionalContracts": [],
      "isFixedGasLimit": false
    }
  ],
  "receipts": [
    {
      "transactionHash": "0x0eb5651ece26459f6b99e6cd3742fc40094fe97fd88768708aaea344fa469c78",
      "transactionIndex": "0x58",
      "blockHash": "0xcffb3c3566daa003bb1036b1defb1145a343d77a0d6bdcf409826e74936c4636",
      "blockNumber": "0x11ab477",
      "from": "0x207E804758e28F2b3fD6E4219671B327100b82f8",
      "to": "0x8735049F496727f824Cc0f2B174d826f5c408192",
      "cumulativeGasUsed": "0x8bfca8",
      "gasUsed": "0x1e99c",
      "contractAddress": null,
      "logs": [
        {
          "address": "0x8735049F496727f824Cc0f2B174d826f5c408192",
          "topics": [
            "0x2f8788117e7eff1d82e926ec794901d17c78024a50270940304540a733656f0d",
            "0xfdd95c635b6fde1e24676722ae45d4e9072f4947c3c68d69c7de01654c840509",
            "0x0000000000000000000000004e59e778a0fb77fbb305637435c62faed9aed40f",
            "0x000000000000000000000000207e804758e28f2b3fd6e4219671b327100b82f8"
          ],
          "data": "0x",
          "blockHash": "0xcffb3c3566daa003bb1036b1defb1145a343d77a0d6bdcf409826e74936c4636",
          "blockNumber": "0x11ab477",
          "transactionHash": "0x0eb5651ece26459f6b99e6cd3742fc40094fe97fd88768708aaea344fa469c78",
          "transactionIndex": "0x58",
          "logIndex": "0x121",
          "removed": false
        }
      ],
      "status": "0x1",
      "logsBloom": "0x00000004000000000000000000000000000000000000000000000000000000000000000000000000000000000000000000000000000000000000000000000000000000000000000040000000000000000000000000000000000000800000000000000000000000004000000000000010002000000000000000000040000000000000000000000000400000000000000008000000000000000000000000000000000000000000000000000000000000000000000000000000001000000000000000000000000000000000000000000000000000600000000100000000000000000000000000004000000000000000010000000000000000000000000000000000",
      "type": "0x2",
      "effectiveGasPrice": "0x74d61ce91"
    },
    {
      "transactionHash": "0x5d058c094f30c3342298a4e2734c4d2ee3795856d9b15408a3ce0b8deee0ca37",
      "transactionIndex": "0x78",
      "blockHash": "0xb1fed0ee20788cfb09c8eff7790b6ac390914be9d61b9a6fcf32dcb24b94aa9e",
      "blockNumber": "0x11ab479",
      "from": "0x207E804758e28F2b3fD6E4219671B327100b82f8",
      "to": "0x8735049F496727f824Cc0f2B174d826f5c408192",
      "cumulativeGasUsed": "0xbd4e07",
      "gasUsed": "0x1a6d0",
      "contractAddress": null,
      "logs": [
        {
          "address": "0x8735049F496727f824Cc0f2B174d826f5c408192",
          "topics": [
            "0x2f8788117e7eff1d82e926ec794901d17c78024a50270940304540a733656f0d",
            "0xb8921042efede08ea4fb87c7cd34c42ab1e134df6d8ef481f71c91910346d835",
            "0x0000000000000000000000004e59e778a0fb77fbb305637435c62faed9aed40f",
            "0x000000000000000000000000207e804758e28f2b3fd6e4219671b327100b82f8"
          ],
          "data": "0x",
          "blockHash": "0xb1fed0ee20788cfb09c8eff7790b6ac390914be9d61b9a6fcf32dcb24b94aa9e",
          "blockNumber": "0x11ab479",
          "transactionHash": "0x5d058c094f30c3342298a4e2734c4d2ee3795856d9b15408a3ce0b8deee0ca37",
          "transactionIndex": "0x78",
          "logIndex": "0x12d",
          "removed": false
        }
      ],
      "status": "0x1",
      "logsBloom": "0x00000004000000000000000000000000000000000000000000000000000000200000000000000000000000000000000000000000000000000000000000000000000000000000000000000000000000000000000000000000000000800000000000000000000000004000000000000010002000000000000000000000000000000000000000000000400000000000000008000000200000000000000000000000000000000000000000000000000000000000000000040000001000000000000000000000000000000000000000000000000000400000000100000000000000000000000000004000000000000000010000000000000000000000000000000000",
      "type": "0x2",
      "effectiveGasPrice": "0x78b17a003"
    },
    {
      "transactionHash": "0xf20d67130cf4948d1f09995602f56f2353023345d8fd072d1acd955f935a2445",
      "transactionIndex": "0x23",
      "blockHash": "0xcef3b403f434a679b194351be1f5bdb74612ad0200aa2f9d3dd108285db0259d",
      "blockNumber": "0x11ab47b",
      "from": "0x207E804758e28F2b3fD6E4219671B327100b82f8",
      "to": "0x8735049F496727f824Cc0f2B174d826f5c408192",
      "cumulativeGasUsed": "0x488772",
      "gasUsed": "0x1a6d0",
      "contractAddress": null,
      "logs": [
        {
          "address": "0x8735049F496727f824Cc0f2B174d826f5c408192",
          "topics": [
            "0x2f8788117e7eff1d82e926ec794901d17c78024a50270940304540a733656f0d",
            "0xb8921042efede08ea4fb87c7cd34c42ab1e134df6d8ef481f71c91910346d835",
            "0x000000000000000000000000432abccb04ddd86db9aa91fa3e03fb566270c9ff",
            "0x000000000000000000000000207e804758e28f2b3fd6e4219671b327100b82f8"
          ],
          "data": "0x",
          "blockHash": "0xcef3b403f434a679b194351be1f5bdb74612ad0200aa2f9d3dd108285db0259d",
          "blockNumber": "0x11ab47b",
          "transactionHash": "0xf20d67130cf4948d1f09995602f56f2353023345d8fd072d1acd955f935a2445",
          "transactionIndex": "0x23",
          "logIndex": "0xa7",
          "removed": false
        }
      ],
      "status": "0x1",
      "logsBloom": "0x00000004000000000000000000000000000000000000000000000000000000200000000000000000000000000000000000000000000200000000000000000000000000000000000000000000000000000000000000000400000000000000000000000000000000004000000000000000002000000000000000000000000000000000000000000000400000000000000000000000200000000000000000000000000000000000000000000000000000000000000000040000001000000000000000080000000000000000000000000000000000400000000100000000000000000000000000004000000000000000010000000000000000000000000000000000",
      "type": "0x2",
      "effectiveGasPrice": "0x7a60ff8fe"
    },
    {
      "transactionHash": "0xdeb921e6eea5acd9f2041a7912d41172e34d316e15c1d2fdf7775c163f9a1a7a",
      "transactionIndex": "0x44",
      "blockHash": "0x0a92dddf475205932481b6008c06d2f4da37bb7c69aba6a34644c8c7dc74ac4b",
      "blockNumber": "0x11ab47d",
      "from": "0x207E804758e28F2b3fD6E4219671B327100b82f8",
      "to": "0x8735049F496727f824Cc0f2B174d826f5c408192",
      "cumulativeGasUsed": "0x6b1a04",
      "gasUsed": "0xc558",
      "contractAddress": null,
      "logs": [
        {
          "address": "0x8735049F496727f824Cc0f2B174d826f5c408192",
          "topics": [
            "0xf6391f5c32d9c69d2a47ea670b442974b53935d1edc7fd64eb21e047a839171b",
            "0xb8921042efede08ea4fb87c7cd34c42ab1e134df6d8ef481f71c91910346d835",
            "0x000000000000000000000000207e804758e28f2b3fd6e4219671b327100b82f8",
            "0x000000000000000000000000207e804758e28f2b3fd6e4219671b327100b82f8"
          ],
          "data": "0x",
          "blockHash": "0x0a92dddf475205932481b6008c06d2f4da37bb7c69aba6a34644c8c7dc74ac4b",
          "blockNumber": "0x11ab47d",
          "transactionHash": "0xdeb921e6eea5acd9f2041a7912d41172e34d316e15c1d2fdf7775c163f9a1a7a",
          "transactionIndex": "0x44",
          "logIndex": "0xe3",
          "removed": false
        }
      ],
      "status": "0x1",
      "logsBloom": "0x00000000000000000000000000000000000000000000000000000000000000200000000000000000000000000000000000200000000000000000000000000000000000000000000000000000000000000000000000000000000000000000000040000000000000004000000000000000002000000000000000000000000000000000000040000000400000000000000000000000200000000000000000000000000000000000000000000000000000000000000000040000000000000000000000000000000000000000000000000000000000400000000000000000000000000000000000004000000000000000010000000000000000000000000000000000",
      "type": "0x2",
      "effectiveGasPrice": "0x7adfbcce5"
    },
    {
      "transactionHash": "0xdcaf2c86baf41ecef3003bc045fe1d9877d68ac1d71a42e9eaf94f6068c6b17b",
      "transactionIndex": "0x30",
      "blockHash": "0x15e359c2737650c473d6877b3fbc0d6cf39c0afd1a7815398cad206600e610ad",
      "blockNumber": "0x11ab47f",
      "from": "0x207E804758e28F2b3fD6E4219671B327100b82f8",
      "to": "0x8735049F496727f824Cc0f2B174d826f5c408192",
      "cumulativeGasUsed": "0x3fab1c",
      "gasUsed": "0xb15c",
      "contractAddress": null,
      "logs": [
        {
          "address": "0x8735049F496727f824Cc0f2B174d826f5c408192",
          "topics": [
            "0xf6391f5c32d9c69d2a47ea670b442974b53935d1edc7fd64eb21e047a839171b",
            "0x0000000000000000000000000000000000000000000000000000000000000000",
            "0x000000000000000000000000432abccb04ddd86db9aa91fa3e03fb566270c9ff",
            "0x000000000000000000000000207e804758e28f2b3fd6e4219671b327100b82f8"
          ],
          "data": "0x",
          "blockHash": "0x15e359c2737650c473d6877b3fbc0d6cf39c0afd1a7815398cad206600e610ad",
          "blockNumber": "0x11ab47f",
          "transactionHash": "0xdcaf2c86baf41ecef3003bc045fe1d9877d68ac1d71a42e9eaf94f6068c6b17b",
          "transactionIndex": "0x30",
          "logIndex": "0x91",
          "removed": false
        }
      ],
      "status": "0x1",
      "logsBloom": "0x00000000000000000000000000000000000000000000000000000000000000000000000000000000000000000000000000200000000200000000000000000000000000000000000000000000000000000000000000000400000000000000000040000000020000004000000000000800002000000000000000000000000000000000000040000000400000000000000000000000000000000000000000000000000000000000000000000000000000000000000000000000000000000000000000080000000000000000000000000000000000400000000000000000000020000000000000004000000000000000010000000000000000000000000000000000",
      "type": "0x2",
      "effectiveGasPrice": "0x7ad8c9c9f"
    },
    {
      "transactionHash": "0x4f3ca7cc949fbae0becc10346f004bd4f174906b05847d5bade3adfcf50a8d5d",
      "transactionIndex": "0x2b",
      "blockHash": "0x9a9b8ea93d974c0d2447bd5802e42cd2f08c2c231f1dc68da1a5f6da98f37263",
      "blockNumber": "0x11ab481",
      "from": "0x207E804758e28F2b3fD6E4219671B327100b82f8",
      "to": "0x8735049F496727f824Cc0f2B174d826f5c408192",
      "cumulativeGasUsed": "0x5a6d92",
      "gasUsed": "0xc424",
      "contractAddress": null,
      "logs": [
        {
          "address": "0x8735049F496727f824Cc0f2B174d826f5c408192",
          "topics": [
            "0xf6391f5c32d9c69d2a47ea670b442974b53935d1edc7fd64eb21e047a839171b",
            "0x0000000000000000000000000000000000000000000000000000000000000000",
            "0x000000000000000000000000207e804758e28f2b3fd6e4219671b327100b82f8",
            "0x000000000000000000000000207e804758e28f2b3fd6e4219671b327100b82f8"
          ],
          "data": "0x",
          "blockHash": "0x9a9b8ea93d974c0d2447bd5802e42cd2f08c2c231f1dc68da1a5f6da98f37263",
          "blockNumber": "0x11ab481",
          "transactionHash": "0x4f3ca7cc949fbae0becc10346f004bd4f174906b05847d5bade3adfcf50a8d5d",
          "transactionIndex": "0x2b",
          "logIndex": "0xe0",
          "removed": false
        }
      ],
      "status": "0x1",
      "logsBloom": "0x00000000000000000000000000000000000000000000000000000000000000000000000000000000000000000000000000200000000000000000000000000000000000000000000000000000000000000000000000000000000000000000000040000000020000004000000000000800002000000000000000000000000000000000000040000000400000000000000000000000000000000000000000000000000000000000000000000000000000000000000000000000000000000000000000000000000000000000000000000000000000400000000000000000000020000000000000004000000000000000010000000000000000000000000000000000",
      "type": "0x2",
      "effectiveGasPrice": "0x78e19b32d"
    },
    {
      "transactionHash": "0x4b60bdaf77af4ae02b99bcad8c5f76c8417a89e7defffdab70ded8bb21873962",
      "transactionIndex": "0x2d",
      "blockHash": "0x653bdf8b4a591e470230e769522bd854e28ee803130035015938d191d20c2419",
      "blockNumber": "0x11ab483",
      "from": "0x207E804758e28F2b3fD6E4219671B327100b82f8",
      "to": "0x92e56d2146D54d5AEcB25CA36c89D027a6ea0D90",
      "cumulativeGasUsed": "0x5219fb",
      "gasUsed": "0x1a6a3",
      "contractAddress": null,
      "logs": [
        {
          "address": "0x92e56d2146D54d5AEcB25CA36c89D027a6ea0D90",
          "topics": [
            "0x2f8788117e7eff1d82e926ec794901d17c78024a50270940304540a733656f0d",
            "0x108f016deb2b2623375e344cf6aedfd098de0555db0c5f551a41c28df1651d03",
            "0x0000000000000000000000004e59e778a0fb77fbb305637435c62faed9aed40f",
            "0x000000000000000000000000207e804758e28f2b3fd6e4219671b327100b82f8"
          ],
          "data": "0x",
          "blockHash": "0x653bdf8b4a591e470230e769522bd854e28ee803130035015938d191d20c2419",
          "blockNumber": "0x11ab483",
          "transactionHash": "0x4b60bdaf77af4ae02b99bcad8c5f76c8417a89e7defffdab70ded8bb21873962",
          "transactionIndex": "0x2d",
          "logIndex": "0xc4",
          "removed": false
        }
      ],
      "status": "0x1",
      "logsBloom": "0x00000004000000000000000000000000000000000000000000000000000000000000000000000000000000000000000000000000000000000000000000000000000000000000000000000000000000000000000000000000000000800000000000000000000000000000000000000010002000000000000000010004000000000000000000000000000000000000000008000000200000000003000000000000000000000000000000000000000000000000000000000000001000000000000000000000000000000000000000000000000000400000000100000000000000000000000000004000000800000000000000000000000000000000000000000000",
      "type": "0x2",
      "effectiveGasPrice": "0x784a1b1ee"
    },
    {
      "transactionHash": "0xad727ef7607e1d2d99e7938115b3577050d5b556be27169e70873b06f511234e",
      "transactionIndex": "0x22",
      "blockHash": "0x691b6a33b250691324aedb7d01666383e02a3c22896daa51f1af5892507a92c5",
      "blockNumber": "0x11ab485",
      "from": "0x207E804758e28F2b3fD6E4219671B327100b82f8",
      "to": "0x92e56d2146D54d5AEcB25CA36c89D027a6ea0D90",
      "cumulativeGasUsed": "0x4f8731",
      "gasUsed": "0xc558",
      "contractAddress": null,
      "logs": [
        {
          "address": "0x92e56d2146D54d5AEcB25CA36c89D027a6ea0D90",
          "topics": [
            "0xf6391f5c32d9c69d2a47ea670b442974b53935d1edc7fd64eb21e047a839171b",
            "0x108f016deb2b2623375e344cf6aedfd098de0555db0c5f551a41c28df1651d03",
            "0x000000000000000000000000207e804758e28f2b3fd6e4219671b327100b82f8",
            "0x000000000000000000000000207e804758e28f2b3fd6e4219671b327100b82f8"
          ],
          "data": "0x",
          "blockHash": "0x691b6a33b250691324aedb7d01666383e02a3c22896daa51f1af5892507a92c5",
          "blockNumber": "0x11ab485",
          "transactionHash": "0xad727ef7607e1d2d99e7938115b3577050d5b556be27169e70873b06f511234e",
          "transactionIndex": "0x22",
          "logIndex": "0xcb",
          "removed": false
        }
      ],
      "status": "0x1",
      "logsBloom": "0x00000000000000000000000000000000000000000000000000000000000000000000000000000000000000000000000000200000000000000000000000000000000000000000000000000000000000000000000000000000000000000000000040000000000000000000000000000000002000000000000000010004000000000000000040000000000000000000000000000000200000000003000000000000000000000000000000000000000000000000000000000000000000000000000000000000000000000000000000000000000000400000000000000000000000000000000000004000000800000000000000000000000000000000000000000000",
      "type": "0x2",
      "effectiveGasPrice": "0x7b6872103"
    },
    {
      "transactionHash": "0x5368cef20eebe2219620446a5ceb46b4a97b2ed18f90538181904607d1e1cb97",
      "transactionIndex": "0x26",
      "blockHash": "0x5d0b945e313b185463c0b04d0a45b316ab6b3679f0a981f9533dcc96692a2c3f",
      "blockNumber": "0x11ab488",
      "from": "0x207E804758e28F2b3fD6E4219671B327100b82f8",
      "to": "0x92e56d2146D54d5AEcB25CA36c89D027a6ea0D90",
      "cumulativeGasUsed": "0x4e7cfe",
      "gasUsed": "0x1a6a3",
      "contractAddress": null,
      "logs": [
        {
          "address": "0x92e56d2146D54d5AEcB25CA36c89D027a6ea0D90",
          "topics": [
            "0x2f8788117e7eff1d82e926ec794901d17c78024a50270940304540a733656f0d",
            "0xaa35fce2ef9ee0b84f290ae7382aca4092f6602051fe2a490784e88a82fe879d",
            "0x0000000000000000000000004e59e778a0fb77fbb305637435c62faed9aed40f",
            "0x000000000000000000000000207e804758e28f2b3fd6e4219671b327100b82f8"
          ],
          "data": "0x",
          "blockHash": "0x5d0b945e313b185463c0b04d0a45b316ab6b3679f0a981f9533dcc96692a2c3f",
          "blockNumber": "0x11ab488",
          "transactionHash": "0x5368cef20eebe2219620446a5ceb46b4a97b2ed18f90538181904607d1e1cb97",
          "transactionIndex": "0x26",
          "logIndex": "0xa1",
          "removed": false
        }
      ],
      "status": "0x1",
      "logsBloom": "0x00000004000000000000000000000000000000000000000000000000000000020000000000000000000000000000000000000000000000000000000000000000000000000000000000000000000000000000000000000000000000800000000000000000000000000000000000000010002000000000000000010000000000000000000000000000000000000000000008000000200000000002000000000000000000000000000000000000000000000000000000000000001000000000000000000000000000000000000000080000000000400000000100000000000000004000000000004000000000000000000000000000000000000000000000000000",
      "type": "0x2",
      "effectiveGasPrice": "0x7ff89182f"
    },
    {
      "transactionHash": "0xbe915e5470eda08cefd09c4f106c14499c3d8b1aa5dbf83ebd60de164bff9e83",
      "transactionIndex": "0x33",
      "blockHash": "0xf4a2f94d4f9a4c39ce8433429936bad1248d6a5041b874db7bca0fa2087b2aff",
      "blockNumber": "0x11ab48a",
      "from": "0x207E804758e28F2b3fD6E4219671B327100b82f8",
      "to": "0x92e56d2146D54d5AEcB25CA36c89D027a6ea0D90",
      "cumulativeGasUsed": "0x4e0895",
      "gasUsed": "0xc558",
      "contractAddress": null,
      "logs": [
        {
          "address": "0x92e56d2146D54d5AEcB25CA36c89D027a6ea0D90",
          "topics": [
            "0xf6391f5c32d9c69d2a47ea670b442974b53935d1edc7fd64eb21e047a839171b",
            "0xaa35fce2ef9ee0b84f290ae7382aca4092f6602051fe2a490784e88a82fe879d",
            "0x000000000000000000000000207e804758e28f2b3fd6e4219671b327100b82f8",
            "0x000000000000000000000000207e804758e28f2b3fd6e4219671b327100b82f8"
          ],
          "data": "0x",
          "blockHash": "0xf4a2f94d4f9a4c39ce8433429936bad1248d6a5041b874db7bca0fa2087b2aff",
          "blockNumber": "0x11ab48a",
          "transactionHash": "0xbe915e5470eda08cefd09c4f106c14499c3d8b1aa5dbf83ebd60de164bff9e83",
          "transactionIndex": "0x33",
          "logIndex": "0xb0",
          "removed": false
        }
      ],
      "status": "0x1",
      "logsBloom": "0x00000000000000000000000000000000000000000000000000000000000000020000000000000000000000000000000000200000000000000000000000000000000000000000000000000000000000000000000000000000000000000000000040000000000000000000000000000000002000000000000000010000000000000000000040000000000000000000000000000000200000000002000000000000000000000000000000000000000000000000000000000000000000000000000000000000000000000000000000080000000000400000000000000000000000004000000000004000000000000000000000000000000000000000000000000000",
      "type": "0x2",
      "effectiveGasPrice": "0x851164033"
    },
    {
      "transactionHash": "0xa37614d9e349366ed765df80304b733dfe2466653a427f977988811ea105e84b",
      "transactionIndex": "0x1c",
      "blockHash": "0xe1d2b33289f10cf87ec22dfea682fee9efe27ae52d0c0008144174dd0901ddad",
      "blockNumber": "0x11ab48c",
      "from": "0x207E804758e28F2b3fD6E4219671B327100b82f8",
      "to": "0x92e56d2146D54d5AEcB25CA36c89D027a6ea0D90",
      "cumulativeGasUsed": "0x24d4f1",
      "gasUsed": "0xb138",
      "contractAddress": null,
      "logs": [
        {
          "address": "0x92e56d2146D54d5AEcB25CA36c89D027a6ea0D90",
          "topics": [
            "0xf6391f5c32d9c69d2a47ea670b442974b53935d1edc7fd64eb21e047a839171b",
            "0x0000000000000000000000000000000000000000000000000000000000000000",
            "0x000000000000000000000000432abccb04ddd86db9aa91fa3e03fb566270c9ff",
            "0x000000000000000000000000207e804758e28f2b3fd6e4219671b327100b82f8"
          ],
          "data": "0x",
          "blockHash": "0xe1d2b33289f10cf87ec22dfea682fee9efe27ae52d0c0008144174dd0901ddad",
          "blockNumber": "0x11ab48c",
          "transactionHash": "0xa37614d9e349366ed765df80304b733dfe2466653a427f977988811ea105e84b",
          "transactionIndex": "0x1c",
          "logIndex": "0x48",
          "removed": false
        }
      ],
      "status": "0x1",
      "logsBloom": "0x00000000000000000000000000000000000000000000000000000000000000000000000000000000000000000000000000200000000200000000000000000000000000000000000000000000000000000000000000000400000000000000000040000000020000000000000000000800002000000000000000010000000000000000000040000000000000000000000000000000200000000002000000000000000000000000000000000000000000000000000000000000000000000000000000080000000000000000000000000000000000400000000000000000000020000000000000004000000000000000000000000000000000000000000000000000",
      "type": "0x2",
      "effectiveGasPrice": "0x823bc89e1"
    },
    {
      "transactionHash": "0x8f6e4c1239474663f99e4c15fc1045ef3e3679ca3b6acceb6a76196efcaf212c",
      "transactionIndex": "0x17",
      "blockHash": "0xa511dfddda9cda18f0b1936a3602264b50fda0705fe74380a6ea60db18cb6ed6",
      "blockNumber": "0x11ab48e",
      "from": "0x207E804758e28F2b3fD6E4219671B327100b82f8",
      "to": "0x92e56d2146D54d5AEcB25CA36c89D027a6ea0D90",
      "cumulativeGasUsed": "0xa93cc3",
      "gasUsed": "0xc424",
      "contractAddress": null,
      "logs": [
        {
          "address": "0x92e56d2146D54d5AEcB25CA36c89D027a6ea0D90",
          "topics": [
            "0xf6391f5c32d9c69d2a47ea670b442974b53935d1edc7fd64eb21e047a839171b",
            "0x0000000000000000000000000000000000000000000000000000000000000000",
            "0x000000000000000000000000207e804758e28f2b3fd6e4219671b327100b82f8",
            "0x000000000000000000000000207e804758e28f2b3fd6e4219671b327100b82f8"
          ],
          "data": "0x",
          "blockHash": "0xa511dfddda9cda18f0b1936a3602264b50fda0705fe74380a6ea60db18cb6ed6",
          "blockNumber": "0x11ab48e",
          "transactionHash": "0x8f6e4c1239474663f99e4c15fc1045ef3e3679ca3b6acceb6a76196efcaf212c",
          "transactionIndex": "0x17",
          "logIndex": "0x96",
          "removed": false
        }
      ],
      "status": "0x1",
      "logsBloom": "0x00000000000000000000000000000000000000000000000000000000000000000000000000000000000000000000000000200000000000000000000000000000000000000000000000000000000000000000000000000000000000000000000040000000020000000000000000000800002000000000000000010000000000000000000040000000000000000000000000000000200000000002000000000000000000000000000000000000000000000000000000000000000000000000000000000000000000000000000000000000000000400000000000000000000020000000000000004000000000000000000000000000000000000000000000000000",
      "type": "0x2",
      "effectiveGasPrice": "0x8414dfca6"
    },
    {
      "transactionHash": "0x1d3d9eed30112c32c408305dea8b185419c97d25653d1af3e025cb4b66700fd7",
      "transactionIndex": "0x3b",
      "blockHash": "0x9473cac0f70f8711bb74cd6d92e44ce2a33a3f8661200662a5033591a9642d95",
      "blockNumber": "0x11ab490",
      "from": "0x207E804758e28F2b3fD6E4219671B327100b82f8",
      "to": "0x29Ab878aEd032e2e2c86FF4A9a9B05e3276cf1f8",
      "cumulativeGasUsed": "0x52536f",
      "gasUsed": "0x1a6cf",
      "contractAddress": null,
      "logs": [
        {
          "address": "0x29Ab878aEd032e2e2c86FF4A9a9B05e3276cf1f8",
          "topics": [
            "0x2f8788117e7eff1d82e926ec794901d17c78024a50270940304540a733656f0d",
            "0x65d7a28e3265b37a6474929f336521b332c1681b933f6cb9f3376673440d862a",
            "0x000000000000000000000000432abccb04ddd86db9aa91fa3e03fb566270c9ff",
            "0x000000000000000000000000207e804758e28f2b3fd6e4219671b327100b82f8"
          ],
          "data": "0x",
          "blockHash": "0x9473cac0f70f8711bb74cd6d92e44ce2a33a3f8661200662a5033591a9642d95",
          "blockNumber": "0x11ab490",
          "transactionHash": "0x1d3d9eed30112c32c408305dea8b185419c97d25653d1af3e025cb4b66700fd7",
          "transactionIndex": "0x3b",
          "logIndex": "0xa0",
          "removed": false
        }
      ],
      "status": "0x1",
      "logsBloom": "0x00000004000000000000000000000000000000000000000000000000000000000000000000000000000000000000000000000000000200000000000000000000000000000000000000000000000000000000000000000400000008000000000000000000000000000000000000000000002000000000000000080000000000000000000000000000000000000000008000000000000000000000000000000000000000000000000000000000000000000000000000000000001000000000000000080000000000000000000000000000000000400800000100002000000000000000000000004000000000000000000000000400000000000000000000000000",
      "type": "0x2",
      "effectiveGasPrice": "0x860e088dc"
    },
    {
      "transactionHash": "0xab0fe05a26f3d567788f7b6d1560f5e039174a1b68a4faa063165256ad7d8624",
      "transactionIndex": "0x5e",
      "blockHash": "0xd0de438f288648120b7172c17108b70071810ee5a8fcbd24bee451c7e2a6dd19",
      "blockNumber": "0x11ab492",
      "from": "0x207E804758e28F2b3fD6E4219671B327100b82f8",
      "to": "0x29Ab878aEd032e2e2c86FF4A9a9B05e3276cf1f8",
      "cumulativeGasUsed": "0x99acf8",
      "gasUsed": "0x1a6cf",
      "contractAddress": null,
      "logs": [
        {
          "address": "0x29Ab878aEd032e2e2c86FF4A9a9B05e3276cf1f8",
          "topics": [
            "0x2f8788117e7eff1d82e926ec794901d17c78024a50270940304540a733656f0d",
            "0x65d7a28e3265b37a6474929f336521b332c1681b933f6cb9f3376673440d862a",
            "0x00000000000000000000000096fa4e22a56c4a7dbcb09eaacd0f2becd80e24ae",
            "0x000000000000000000000000207e804758e28f2b3fd6e4219671b327100b82f8"
          ],
          "data": "0x",
          "blockHash": "0xd0de438f288648120b7172c17108b70071810ee5a8fcbd24bee451c7e2a6dd19",
          "blockNumber": "0x11ab492",
          "transactionHash": "0xab0fe05a26f3d567788f7b6d1560f5e039174a1b68a4faa063165256ad7d8624",
          "transactionIndex": "0x5e",
          "logIndex": "0x12b",
          "removed": false
        }
      ],
      "status": "0x1",
      "logsBloom": "0x00000004000000000000000000000000000000000000000000000000000000000000000000000000000000000000000000000000000000000004000000000000000000000000000000000000000002000000000000000000000008000000000000000000000000000000000000000000002000000000000000080000000000000000000000000000000000000000008000000000000000000000000000000000000000000000000000000000000000000000000000000000001000000000000000000000000000000000000000000000000000400800000100002000000000000000000000004000000000000000000000000400000000000000080000000000",
      "type": "0x2",
      "effectiveGasPrice": "0x90c65c543"
    },
    {
      "transactionHash": "0xb442da97afbaa658aca0bc7f319bd8af91fb441afd7dbd0096b4f4013da2d2d5",
      "transactionIndex": "0x1a",
      "blockHash": "0xf6b64a2f1af0d0e4c6b533ff355b35a9e6d732e577bcca0bc9a9bc46b655dd3b",
      "blockNumber": "0x11ab494",
      "from": "0x207E804758e28F2b3fD6E4219671B327100b82f8",
      "to": "0x29Ab878aEd032e2e2c86FF4A9a9B05e3276cf1f8",
      "cumulativeGasUsed": "0x2f1ebd",
      "gasUsed": "0xd332",
      "contractAddress": null,
      "logs": [
        {
          "address": "0x29Ab878aEd032e2e2c86FF4A9a9B05e3276cf1f8",
          "topics": [
            "0xf6391f5c32d9c69d2a47ea670b442974b53935d1edc7fd64eb21e047a839171b",
            "0x65d7a28e3265b37a6474929f336521b332c1681b933f6cb9f3376673440d862a",
            "0x0000000000000000000000003dc5fcb0ad5835c6059112e51a75b57dba668eb8",
            "0x000000000000000000000000207e804758e28f2b3fd6e4219671b327100b82f8"
          ],
          "data": "0x",
          "blockHash": "0xf6b64a2f1af0d0e4c6b533ff355b35a9e6d732e577bcca0bc9a9bc46b655dd3b",
          "blockNumber": "0x11ab494",
          "transactionHash": "0xb442da97afbaa658aca0bc7f319bd8af91fb441afd7dbd0096b4f4013da2d2d5",
          "transactionIndex": "0x1a",
          "logIndex": "0x70",
          "removed": false
        }
      ],
      "status": "0x1",
      "logsBloom": "0x00000000000000000000000000000000000000000000000000000000000000000000000000000000000000000000000000200000000000000000000000000000000000000000000000000000000000000400002000000000000008000000000040000000000000000000000000000000002000000000000000080000000000000000000040000000000000000000008000000000000000000000000000000000000000000000000000000000000000000000000000000000000000000000000000000000000000000000000000000000000000400800000000002000000001000000000000004000000000000000000000000400000000000000000000000000",
      "type": "0x2",
      "effectiveGasPrice": "0x98982b702"
    },
    {
      "transactionHash": "0xdf5df9dda516cf879064397785be6e2d0b5adb2627cf027ab0b48d88066f6b79",
      "transactionIndex": "0x20",
      "blockHash": "0x926da11ec49a33cef70893546b181ac369c67b77e9731b60f3bbfb08b69e32ab",
      "blockNumber": "0x11ab496",
      "from": "0x207E804758e28F2b3fD6E4219671B327100b82f8",
      "to": "0x29Ab878aEd032e2e2c86FF4A9a9B05e3276cf1f8",
      "cumulativeGasUsed": "0xb8c00f",
      "gasUsed": "0xc534",
      "contractAddress": null,
      "logs": [
        {
          "address": "0x29Ab878aEd032e2e2c86FF4A9a9B05e3276cf1f8",
          "topics": [
            "0xf6391f5c32d9c69d2a47ea670b442974b53935d1edc7fd64eb21e047a839171b",
            "0x65d7a28e3265b37a6474929f336521b332c1681b933f6cb9f3376673440d862a",
            "0x000000000000000000000000207e804758e28f2b3fd6e4219671b327100b82f8",
            "0x000000000000000000000000207e804758e28f2b3fd6e4219671b327100b82f8"
          ],
          "data": "0x",
          "blockHash": "0x926da11ec49a33cef70893546b181ac369c67b77e9731b60f3bbfb08b69e32ab",
          "blockNumber": "0x11ab496",
          "transactionHash": "0xdf5df9dda516cf879064397785be6e2d0b5adb2627cf027ab0b48d88066f6b79",
          "transactionIndex": "0x20",
          "logIndex": "0xbb",
          "removed": false
        }
      ],
      "status": "0x1",
      "logsBloom": "0x00000000000000000000000000000000000000000000000000000000000000000000000000000000000000000000000000200000000000000000000000000000000000000000000000000000000000000000000000000000000008000000000040000000000000000000000000000000002000000000000000080000000000000000000040000000000000000000008000000000000000000000000000000000000000000000000000000000000000000000000000000000000000000000000000000000000000000000000000000000000000400800000000002000000000000000000000004000000000000000000000000400000000000000000000000000",
      "type": "0x2",
      "effectiveGasPrice": "0x928bd1fd9"
    },
    {
      "transactionHash": "0xfef1072625159432c2a236cb7208534e708c411c27d01cd86a664f7c31bc36af",
      "transactionIndex": "0x4e",
      "blockHash": "0x940ed47b0f29e71321f3ac832097ecdb775f68e05729b56dec17a69d4175903d",
      "blockNumber": "0x11ab498",
      "from": "0x207E804758e28F2b3fD6E4219671B327100b82f8",
      "to": "0x29Ab878aEd032e2e2c86FF4A9a9B05e3276cf1f8",
      "cumulativeGasUsed": "0x6d2a5b",
      "gasUsed": "0x1a6cf",
      "contractAddress": null,
      "logs": [
        {
          "address": "0x29Ab878aEd032e2e2c86FF4A9a9B05e3276cf1f8",
          "topics": [
            "0x2f8788117e7eff1d82e926ec794901d17c78024a50270940304540a733656f0d",
            "0x427da25fe773164f88948d3e215c94b6554e2ed5e5f203a821c9f2f6131cf75a",
            "0x0000000000000000000000004e59e778a0fb77fbb305637435c62faed9aed40f",
            "0x000000000000000000000000207e804758e28f2b3fd6e4219671b327100b82f8"
          ],
          "data": "0x",
          "blockHash": "0x940ed47b0f29e71321f3ac832097ecdb775f68e05729b56dec17a69d4175903d",
          "blockNumber": "0x11ab498",
          "transactionHash": "0xfef1072625159432c2a236cb7208534e708c411c27d01cd86a664f7c31bc36af",
          "transactionIndex": "0x4e",
          "logIndex": "0xa3",
          "removed": false
        }
      ],
      "status": "0x1",
      "logsBloom": "0x00000004000000000000000000000000000000000000000000000000000000000000000000000000000000000000000000000000000000000000000000000000000000000000000000000000000000000000000000000000000008800010000000000000000000000000000000000010002000000000000000080000000000000000000000000000000000000000000008000000000000000000000001000000000000000000000000000000000000000000000000000000001000000000000000000000000000000000000000000020000000400800000100000000000000000000000000004000000000000000000000000000000000000000000000000000",
      "type": "0x2",
      "effectiveGasPrice": "0x9e773f3b2"
    },
    {
      "transactionHash": "0x43dafb9dda36dc22f6730872ad8b99d378fcbab494fed6ff8abbc03b40517a78",
      "transactionIndex": "0x21",
      "blockHash": "0x77268653d50773da5a04f78261990dc5757b26e317bd1288c2bf0cfe17cf9cf4",
      "blockNumber": "0x11ab49a",
      "from": "0x207E804758e28F2b3fD6E4219671B327100b82f8",
      "to": "0x29Ab878aEd032e2e2c86FF4A9a9B05e3276cf1f8",
      "cumulativeGasUsed": "0x514342",
      "gasUsed": "0xc534",
      "contractAddress": null,
      "logs": [
        {
          "address": "0x29Ab878aEd032e2e2c86FF4A9a9B05e3276cf1f8",
          "topics": [
            "0xf6391f5c32d9c69d2a47ea670b442974b53935d1edc7fd64eb21e047a839171b",
            "0x427da25fe773164f88948d3e215c94b6554e2ed5e5f203a821c9f2f6131cf75a",
            "0x000000000000000000000000207e804758e28f2b3fd6e4219671b327100b82f8",
            "0x000000000000000000000000207e804758e28f2b3fd6e4219671b327100b82f8"
          ],
          "data": "0x",
          "blockHash": "0x77268653d50773da5a04f78261990dc5757b26e317bd1288c2bf0cfe17cf9cf4",
          "blockNumber": "0x11ab49a",
          "transactionHash": "0x43dafb9dda36dc22f6730872ad8b99d378fcbab494fed6ff8abbc03b40517a78",
          "transactionIndex": "0x21",
          "logIndex": "0x8c",
          "removed": false
        }
      ],
      "status": "0x1",
      "logsBloom": "0x00000000000000000000000000000000000000000000000000000000000000000000000000000000000000000000000000200000000000000000000000000000000000000000000000000000000000000000000000000000000008000010000040000000000000000000000000000000002000000000000000080000000000000000000040000000000000000000000000000000000000000000000001000000000000000000000000000000000000000000000000000000000000000000000000000000000000000000000000000020000000400800000000000000000000000000000000004000000000000000000000000000000000000000000000000000",
      "type": "0x2",
      "effectiveGasPrice": "0x9683aa498"
    },
    {
      "transactionHash": "0xcda87e0fd2464cbaa618c636ad698be1b11179cac05341437b16175e64490ebb",
      "transactionIndex": "0x34",
      "blockHash": "0x91e79a909a51ce25927ddb8388618cd12700ffcf9289e448fb8b58b699b41c4d",
      "blockNumber": "0x11ab49c",
      "from": "0x207E804758e28F2b3fD6E4219671B327100b82f8",
      "to": "0x29Ab878aEd032e2e2c86FF4A9a9B05e3276cf1f8",
      "cumulativeGasUsed": "0x524f2b",
      "gasUsed": "0xb138",
      "contractAddress": null,
      "logs": [
        {
          "address": "0x29Ab878aEd032e2e2c86FF4A9a9B05e3276cf1f8",
          "topics": [
            "0xf6391f5c32d9c69d2a47ea670b442974b53935d1edc7fd64eb21e047a839171b",
            "0x0000000000000000000000000000000000000000000000000000000000000000",
            "0x000000000000000000000000432abccb04ddd86db9aa91fa3e03fb566270c9ff",
            "0x000000000000000000000000207e804758e28f2b3fd6e4219671b327100b82f8"
          ],
          "data": "0x",
          "blockHash": "0x91e79a909a51ce25927ddb8388618cd12700ffcf9289e448fb8b58b699b41c4d",
          "blockNumber": "0x11ab49c",
          "transactionHash": "0xcda87e0fd2464cbaa618c636ad698be1b11179cac05341437b16175e64490ebb",
          "transactionIndex": "0x34",
          "logIndex": "0xb3",
          "removed": false
        }
      ],
      "status": "0x1",
      "logsBloom": "0x00000000000000000000000000000000000000000000000000000000000000000000000000000000000000000000000000200000000200000000000000000000000000000000000000000000000000000000000000000400000008000000000040000000020000000000000000000800002000000000000000080000000000000000000040000000000000000000000000000000000000000000000000000000000000000000000000000000000000000000000000000000000000000000000000080000000000000000000000000000000000400800000000000000000020000000000000004000000000000000000000000000000000000000000000000000",
      "type": "0x2",
      "effectiveGasPrice": "0x93d5e00a4"
    },
    {
      "transactionHash": "0xe1d6b3f901fd8a8b205ac00f93a861f95a89dbaf2def0253f4027d3b5adad9e6",
      "transactionIndex": "0x4e",
      "blockHash": "0x91e93ad988287cd69745dcb946198c9c3ce6827a275182ddd5f23043563f9af4",
      "blockNumber": "0x11ab49f",
      "from": "0x207E804758e28F2b3fD6E4219671B327100b82f8",
      "to": "0x29Ab878aEd032e2e2c86FF4A9a9B05e3276cf1f8",
      "cumulativeGasUsed": "0x6426b5",
      "gasUsed": "0xc401",
      "contractAddress": null,
      "logs": [
        {
          "address": "0x29Ab878aEd032e2e2c86FF4A9a9B05e3276cf1f8",
          "topics": [
            "0xf6391f5c32d9c69d2a47ea670b442974b53935d1edc7fd64eb21e047a839171b",
            "0x0000000000000000000000000000000000000000000000000000000000000000",
            "0x000000000000000000000000207e804758e28f2b3fd6e4219671b327100b82f8",
            "0x000000000000000000000000207e804758e28f2b3fd6e4219671b327100b82f8"
          ],
          "data": "0x",
          "blockHash": "0x91e93ad988287cd69745dcb946198c9c3ce6827a275182ddd5f23043563f9af4",
          "blockNumber": "0x11ab49f",
          "transactionHash": "0xe1d6b3f901fd8a8b205ac00f93a861f95a89dbaf2def0253f4027d3b5adad9e6",
          "transactionIndex": "0x4e",
          "logIndex": "0xa8",
          "removed": false
        }
      ],
      "status": "0x1",
      "logsBloom": "0x00000000000000000000000000000000000000000000000000000000000000000000000000000000000000000000000000200000000000000000000000000000000000000000000000000000000000000000000000000000000008000000000040000000020000000000000000000800002000000000000000080000000000000000000040000000000000000000000000000000000000000000000000000000000000000000000000000000000000000000000000000000000000000000000000000000000000000000000000000000000000400800000000000000000020000000000000004000000000000000000000000000000000000000000000000000",
      "type": "0x2",
      "effectiveGasPrice": "0x942a3e82d"
    },
    {
      "transactionHash": "0xda62f59930a7d3f8247c50687db306dc9c7956005c42852454d596461b9be493",
      "transactionIndex": "0x4f",
      "blockHash": "0x739682530976431966692cdd6d1ede6212ff330caa6f18db350991f7d91dfde3",
      "blockNumber": "0x11ab4a1",
      "from": "0x207E804758e28F2b3fD6E4219671B327100b82f8",
      "to": "0x1766be66fBb0a1883d41B4cfB0a533c5249D3b82",
      "cumulativeGasUsed": "0x6d5277",
      "gasUsed": "0x1a6b9",
      "contractAddress": null,
      "logs": [
        {
          "address": "0x1766be66fBb0a1883d41B4cfB0a533c5249D3b82",
          "topics": [
            "0x2f8788117e7eff1d82e926ec794901d17c78024a50270940304540a733656f0d",
            "0xa04f8e5e9269ada37cd14db144b4a440e16627eb30d392f72521786dd7cc2068",
            "0x0000000000000000000000004e59e778a0fb77fbb305637435c62faed9aed40f",
            "0x000000000000000000000000207e804758e28f2b3fd6e4219671b327100b82f8"
          ],
          "data": "0x",
          "blockHash": "0x739682530976431966692cdd6d1ede6212ff330caa6f18db350991f7d91dfde3",
          "blockNumber": "0x11ab4a1",
          "transactionHash": "0xda62f59930a7d3f8247c50687db306dc9c7956005c42852454d596461b9be493",
          "transactionIndex": "0x4f",
          "logIndex": "0x84",
          "removed": false
        }
      ],
      "status": "0x1",
      "logsBloom": "0x00800004000000000000000000000000000000000000000000000000000000000000000000000000000000000000000000000000000000000000000000000000000000000000000000000000000000000000000000000000000000800000000000000000001000000000000000000010002000000000000000000000000000000000000000000004000000000000000008000000000000000000000000000001000000000000000000000000000000000000000000000020001000000000000000000000000000000000000000000000000000400000000100000000000000000000000000004000000000000000000000000000000000000008000000000000",
      "type": "0x2",
      "effectiveGasPrice": "0x9734b18f7"
    },
    {
      "transactionHash": "0x59005347cd1cf774ad32d625b76670bd2d4bdaab167a667189d6e7c1760f7c55",
      "transactionIndex": "0x1d",
      "blockHash": "0x351e053650903b27e84c10f62bc312cd0647f87bbbe6adf023498dfb114027da",
      "blockNumber": "0x11ab4a4",
      "from": "0x207E804758e28F2b3fD6E4219671B327100b82f8",
      "to": "0x1766be66fBb0a1883d41B4cfB0a533c5249D3b82",
      "cumulativeGasUsed": "0x2dbccc",
      "gasUsed": "0xd355",
      "contractAddress": null,
      "logs": [
        {
          "address": "0x1766be66fBb0a1883d41B4cfB0a533c5249D3b82",
          "topics": [
            "0xf6391f5c32d9c69d2a47ea670b442974b53935d1edc7fd64eb21e047a839171b",
            "0xa04f8e5e9269ada37cd14db144b4a440e16627eb30d392f72521786dd7cc2068",
            "0x000000000000000000000000432abccb04ddd86db9aa91fa3e03fb566270c9ff",
            "0x000000000000000000000000207e804758e28f2b3fd6e4219671b327100b82f8"
          ],
          "data": "0x",
          "blockHash": "0x351e053650903b27e84c10f62bc312cd0647f87bbbe6adf023498dfb114027da",
          "blockNumber": "0x11ab4a4",
          "transactionHash": "0x59005347cd1cf774ad32d625b76670bd2d4bdaab167a667189d6e7c1760f7c55",
          "transactionIndex": "0x1d",
          "logIndex": "0x62",
          "removed": false
        }
      ],
      "status": "0x1",
      "logsBloom": "0x00800000000000000000000000000000000000000000000000000000000000000000000000000000000000000000000000200000000200000000000000000000000000000000000000000000000000000000000000000400000000000000000040000000001000000000000000000000002000000000000000000000000000000000000040000004000000000000000000000000000000000000000000000001000000000000000000000000000000000000000000000020000000000000000000080000000000000000000000000000000000400000000000000000000000000000000000004000000000000000000000000000000000000008000000000000",
      "type": "0x2",
      "effectiveGasPrice": "0x98fffc2bc"
    },
    {
      "transactionHash": "0x7b39a2e7735827408ad3ee6454505f9ba3e8ecf3360ff4168dd0af9e33c66685",
      "transactionIndex": "0x29",
      "blockHash": "0x50047b3c5bfef18099f99e1c1e816368d972d4486ec5d6c2c88f782ef7678e14",
      "blockNumber": "0x11ab4a7",
      "from": "0x207E804758e28F2b3fD6E4219671B327100b82f8",
      "to": "0x1766be66fBb0a1883d41B4cfB0a533c5249D3b82",
      "cumulativeGasUsed": "0x476b12",
      "gasUsed": "0xc558",
      "contractAddress": null,
      "logs": [
        {
          "address": "0x1766be66fBb0a1883d41B4cfB0a533c5249D3b82",
          "topics": [
            "0xf6391f5c32d9c69d2a47ea670b442974b53935d1edc7fd64eb21e047a839171b",
            "0xa04f8e5e9269ada37cd14db144b4a440e16627eb30d392f72521786dd7cc2068",
            "0x000000000000000000000000207e804758e28f2b3fd6e4219671b327100b82f8",
            "0x000000000000000000000000207e804758e28f2b3fd6e4219671b327100b82f8"
          ],
          "data": "0x",
          "blockHash": "0x50047b3c5bfef18099f99e1c1e816368d972d4486ec5d6c2c88f782ef7678e14",
          "blockNumber": "0x11ab4a7",
          "transactionHash": "0x7b39a2e7735827408ad3ee6454505f9ba3e8ecf3360ff4168dd0af9e33c66685",
          "transactionIndex": "0x29",
          "logIndex": "0xb6",
          "removed": false
        }
      ],
      "status": "0x1",
      "logsBloom": "0x00800000000000000000000000000000000000000000000000000000000000000000000000000000000000000000000000200000000000000000000000000000000000000000000000000000000000000000000000000000000000000000000040000000001000000000000000000000002000000000000000000000000000000000000040000004000000000000000000000000000000000000000000000001000000000000000000000000000000000000000000000020000000000000000000000000000000000000000000000000000000400000000000000000000000000000000000004000000000000000000000000000000000000008000000000000",
      "type": "0x2",
      "effectiveGasPrice": "0x95337ce20"
    },
    {
      "transactionHash": "0x075be4659bad8e1c8c1ea0241bc6bdb35617768d64720feeaab4a9f999c6b043",
      "transactionIndex": "0x2a",
      "blockHash": "0x2e7c36bfd2bbc7536e2b8c84e60ad84fe11cad3701d254e765578687ab827cd7",
      "blockNumber": "0x11ab4a9",
      "from": "0x207E804758e28F2b3fD6E4219671B327100b82f8",
      "to": "0x1766be66fBb0a1883d41B4cfB0a533c5249D3b82",
      "cumulativeGasUsed": "0x43a2c3",
      "gasUsed": "0xb15c",
      "contractAddress": null,
      "logs": [
        {
          "address": "0x1766be66fBb0a1883d41B4cfB0a533c5249D3b82",
          "topics": [
            "0xf6391f5c32d9c69d2a47ea670b442974b53935d1edc7fd64eb21e047a839171b",
            "0x0000000000000000000000000000000000000000000000000000000000000000",
            "0x000000000000000000000000432abccb04ddd86db9aa91fa3e03fb566270c9ff",
            "0x000000000000000000000000207e804758e28f2b3fd6e4219671b327100b82f8"
          ],
          "data": "0x",
          "blockHash": "0x2e7c36bfd2bbc7536e2b8c84e60ad84fe11cad3701d254e765578687ab827cd7",
          "blockNumber": "0x11ab4a9",
          "transactionHash": "0x075be4659bad8e1c8c1ea0241bc6bdb35617768d64720feeaab4a9f999c6b043",
          "transactionIndex": "0x2a",
          "logIndex": "0xa2",
          "removed": false
        }
      ],
      "status": "0x1",
      "logsBloom": "0x00800000000000000000000000000000000000000000000000000000000000000000000000000000000000000000000000200000000200000000000000000000000000000000000000000000000000000000000000000400000000000000000040000000020000000000000000000800002000000000000000000000000000000000000040000004000000000000000000000000000000000000000000000000000000000000000000000000000000000000000000000000000000000000000000080000000000000000000000000000000000400000000000000000000020000000000000004000000000000000000000000000000000000008000000000000",
      "type": "0x2",
      "effectiveGasPrice": "0x92f70cd0d"
    },
    {
      "transactionHash": "0xbc94393ce7e50ce820de5bdd83acc1cdb2984fb446573705f4d039b4ad4a4823",
      "transactionIndex": "0x1e",
      "blockHash": "0x14fe740446dbb61dc55c84b47bb97c5ddf8e7eba272f971f20a40cb371152591",
      "blockNumber": "0x11ab4ab",
      "from": "0x207E804758e28F2b3fD6E4219671B327100b82f8",
      "to": "0x1766be66fBb0a1883d41B4cfB0a533c5249D3b82",
      "cumulativeGasUsed": "0x37da69",
      "gasUsed": "0xc424",
      "contractAddress": null,
      "logs": [
        {
          "address": "0x1766be66fBb0a1883d41B4cfB0a533c5249D3b82",
          "topics": [
            "0xf6391f5c32d9c69d2a47ea670b442974b53935d1edc7fd64eb21e047a839171b",
            "0x0000000000000000000000000000000000000000000000000000000000000000",
            "0x000000000000000000000000207e804758e28f2b3fd6e4219671b327100b82f8",
            "0x000000000000000000000000207e804758e28f2b3fd6e4219671b327100b82f8"
          ],
          "data": "0x",
          "blockHash": "0x14fe740446dbb61dc55c84b47bb97c5ddf8e7eba272f971f20a40cb371152591",
          "blockNumber": "0x11ab4ab",
          "transactionHash": "0xbc94393ce7e50ce820de5bdd83acc1cdb2984fb446573705f4d039b4ad4a4823",
          "transactionIndex": "0x1e",
          "logIndex": "0x8f",
          "removed": false
        }
      ],
      "status": "0x1",
      "logsBloom": "0x00800000000000000000000000000000000000000000000000000000000000000000000000000000000000000000000000200000000000000000000000000000000000000000000000000000000000000000000000000000000000000000000040000000020000000000000000000800002000000000000000000000000000000000000040000004000000000000000000000000000000000000000000000000000000000000000000000000000000000000000000000000000000000000000000000000000000000000000000000000000000400000000000000000000020000000000000004000000000000000000000000000000000000008000000000000",
      "type": "0x2",
      "effectiveGasPrice": "0x8edd465bd"
    },
    {
      "transactionHash": "0x1fd981cad8e6701ddd65f606da489582d124e5ddec96639bcb1ec2a810c7992d",
      "transactionIndex": "0x1f",
      "blockHash": "0x77f3c5fb240647c09aa79495d274b47d8c313180ee57e3161997452e1375581e",
      "blockNumber": "0x11ab4ad",
      "from": "0x207E804758e28F2b3fD6E4219671B327100b82f8",
      "to": "0xD4e11C28E04c0c2bf370b7a9989498B7eA02493f",
      "cumulativeGasUsed": "0x2cfcc9",
      "gasUsed": "0x1a6b9",
      "contractAddress": null,
      "logs": [
        {
          "address": "0xD4e11C28E04c0c2bf370b7a9989498B7eA02493f",
          "topics": [
            "0x2f8788117e7eff1d82e926ec794901d17c78024a50270940304540a733656f0d",
            "0xcc8edc991cb080954074ef217f195cb7b2d172dd844d3b763f78014408eae224",
            "0x0000000000000000000000004e59e778a0fb77fbb305637435c62faed9aed40f",
            "0x000000000000000000000000207e804758e28f2b3fd6e4219671b327100b82f8"
          ],
          "data": "0x",
          "blockHash": "0x77f3c5fb240647c09aa79495d274b47d8c313180ee57e3161997452e1375581e",
          "blockNumber": "0x11ab4ad",
          "transactionHash": "0x1fd981cad8e6701ddd65f606da489582d124e5ddec96639bcb1ec2a810c7992d",
          "transactionIndex": "0x1f",
          "logIndex": "0x6c",
          "removed": false
        }
      ],
      "status": "0x1",
      "logsBloom": "0x00000004000000000000002000000000000000000000000000000000000000000000000000000000000000000000004000000000000000000000000000000000000000000000000000000000000000000000000000000000000000800000000000000000000000000000000000000010002000000000000000000000000000000000000000000000000000000000000008000000020000000000000000000000000000000000000000000000000000000000000000000080001000000002000000000000000000000000000000000000000000400000000100000000000000000000000000004000000000000000000000000000000000000200000000000000",
      "type": "0x2",
      "effectiveGasPrice": "0x8ecb44d33"
    },
    {
      "transactionHash": "0xa45fd7f092590dd90835defec2c2b8216263d52f9baaa46038006f5c2fb3c2fa",
      "transactionIndex": "0x31",
      "blockHash": "0xbdb95d2f98d40b2df2130b57442a39107da81ff9357d977a8479aa7194dede6b",
      "blockNumber": "0x11ab4af",
      "from": "0x207E804758e28F2b3fD6E4219671B327100b82f8",
      "to": "0xD4e11C28E04c0c2bf370b7a9989498B7eA02493f",
      "cumulativeGasUsed": "0x550d7c",
      "gasUsed": "0xc522",
      "contractAddress": null,
      "logs": [
        {
          "address": "0xD4e11C28E04c0c2bf370b7a9989498B7eA02493f",
          "topics": [
            "0xf6391f5c32d9c69d2a47ea670b442974b53935d1edc7fd64eb21e047a839171b",
            "0xcc8edc991cb080954074ef217f195cb7b2d172dd844d3b763f78014408eae224",
            "0x000000000000000000000000207e804758e28f2b3fd6e4219671b327100b82f8",
            "0x000000000000000000000000207e804758e28f2b3fd6e4219671b327100b82f8"
          ],
          "data": "0x",
          "blockHash": "0xbdb95d2f98d40b2df2130b57442a39107da81ff9357d977a8479aa7194dede6b",
          "blockNumber": "0x11ab4af",
          "transactionHash": "0xa45fd7f092590dd90835defec2c2b8216263d52f9baaa46038006f5c2fb3c2fa",
          "transactionIndex": "0x31",
          "logIndex": "0xa7",
          "removed": false
        }
      ],
      "status": "0x1",
      "logsBloom": "0x00000000000000000000002000000000000000000000000000000000000000000000000000000000000000000000004000200000000000000000000000000000000000000000000000000000000000000000000000000000000000000000000040000000000000000000000000000000002000000000000000000000000000000000000040000000000000000000000000000000020000000000000000000000000000000000000000000000000000000000000000000080000000000002000000000000000000000000000000000000000000400000000000000000000000000000000000004000000000000000000000000000000000000200000000000000",
      "type": "0x2",
      "effectiveGasPrice": "0x8dd9f8f40"
    },
    {
      "transactionHash": "0x908a443716c7a1004e59ba63d35f4a7e71c827be3e52ba709caeb4f715ad61ec",
      "transactionIndex": "0x1b",
      "blockHash": "0xaeae29fa9a658d6a2ccd0df1152081ebe2ff7644882fdb37fec1505cce460d64",
      "blockNumber": "0x11ab4b0",
      "from": "0x207E804758e28F2b3fD6E4219671B327100b82f8",
      "to": "0xD4e11C28E04c0c2bf370b7a9989498B7eA02493f",
      "cumulativeGasUsed": "0x4306ed",
      "gasUsed": "0xb15b",
      "contractAddress": null,
      "logs": [
        {
          "address": "0xD4e11C28E04c0c2bf370b7a9989498B7eA02493f",
          "topics": [
            "0xf6391f5c32d9c69d2a47ea670b442974b53935d1edc7fd64eb21e047a839171b",
            "0x0000000000000000000000000000000000000000000000000000000000000000",
            "0x000000000000000000000000432abccb04ddd86db9aa91fa3e03fb566270c9ff",
            "0x000000000000000000000000207e804758e28f2b3fd6e4219671b327100b82f8"
          ],
          "data": "0x",
          "blockHash": "0xaeae29fa9a658d6a2ccd0df1152081ebe2ff7644882fdb37fec1505cce460d64",
          "blockNumber": "0x11ab4b0",
          "transactionHash": "0x908a443716c7a1004e59ba63d35f4a7e71c827be3e52ba709caeb4f715ad61ec",
          "transactionIndex": "0x1b",
          "logIndex": "0xbd",
          "removed": false
        }
      ],
      "status": "0x1",
      "logsBloom": "0x00000000000000000000002000000000000000000000000000000000000000000000000000000000000000000000004000200000000200000000000000000000000000000000000000000000000000000000000000000400000000000000000040000000020000000000000000000800002000000000000000000000000000000000000040000000000000000000000000000000000000000000000000000000000000000000000000000000000000000000000000000080000000000000000000080000000000000000000000000000000000400000000000000000000020000000000000004000000000000000000000000000000000000000000000000000",
      "type": "0x2",
      "effectiveGasPrice": "0x9daafb08f"
    },
    {
      "transactionHash": "0x85c526c835283db4496b72ded6840959fc1982fee1bf44b3ea5f4d082b65726f",
      "transactionIndex": "0x15",
      "blockHash": "0x89463e4d7839c41d250a63675b7fef721b871dad0e87d23a1b5211b1be9e443c",
      "blockNumber": "0x11ab4b2",
      "from": "0x207E804758e28F2b3fD6E4219671B327100b82f8",
      "to": "0xD4e11C28E04c0c2bf370b7a9989498B7eA02493f",
      "cumulativeGasUsed": "0x20ab16",
      "gasUsed": "0xc3ef",
      "contractAddress": null,
      "logs": [
        {
          "address": "0xD4e11C28E04c0c2bf370b7a9989498B7eA02493f",
          "topics": [
            "0xf6391f5c32d9c69d2a47ea670b442974b53935d1edc7fd64eb21e047a839171b",
            "0x0000000000000000000000000000000000000000000000000000000000000000",
            "0x000000000000000000000000207e804758e28f2b3fd6e4219671b327100b82f8",
            "0x000000000000000000000000207e804758e28f2b3fd6e4219671b327100b82f8"
          ],
          "data": "0x",
          "blockHash": "0x89463e4d7839c41d250a63675b7fef721b871dad0e87d23a1b5211b1be9e443c",
          "blockNumber": "0x11ab4b2",
          "transactionHash": "0x85c526c835283db4496b72ded6840959fc1982fee1bf44b3ea5f4d082b65726f",
          "transactionIndex": "0x15",
          "logIndex": "0x3e",
          "removed": false
        }
      ],
      "status": "0x1",
      "logsBloom": "0x00000000000000000000002000000000000000000000000000000000000000000000000000000000000000000000004000200000000000000000000000000000000000000000000000000000000000000000000000000000000000000000000040000000020000000000000000000800002000000000000000000000000000000000000040000000000000000000000000000000000000000000000000000000000000000000000000000000000000000000000000000080000000000000000000000000000000000000000000000000000000400000000000000000000020000000000000004000000000000000000000000000000000000000000000000000",
      "type": "0x2",
      "effectiveGasPrice": "0x9fa820849"
    },
    {
      "transactionHash": "0xdd3b2b9b4cb86e50f195306c18c760ce5ba2e4168797cef8eaec15e7e7fc8740",
      "transactionIndex": "0x13",
      "blockHash": "0x8f9e35a54156678f195cba213d7ae3db83c384e9d34b6a07c123673d964e9e46",
      "blockNumber": "0x11ab4b4",
      "from": "0x207E804758e28F2b3fD6E4219671B327100b82f8",
      "to": "0xD6E4aA932147A3FE5311dA1b67D9e73da06F9cEf",
      "cumulativeGasUsed": "0x22f742",
      "gasUsed": "0x1a6b9",
      "contractAddress": null,
      "logs": [
        {
          "address": "0xD6E4aA932147A3FE5311dA1b67D9e73da06F9cEf",
          "topics": [
            "0x2f8788117e7eff1d82e926ec794901d17c78024a50270940304540a733656f0d",
            "0xcc8edc991cb080954074ef217f195cb7b2d172dd844d3b763f78014408eae224",
            "0x0000000000000000000000004e59e778a0fb77fbb305637435c62faed9aed40f",
            "0x000000000000000000000000207e804758e28f2b3fd6e4219671b327100b82f8"
          ],
          "data": "0x",
          "blockHash": "0x8f9e35a54156678f195cba213d7ae3db83c384e9d34b6a07c123673d964e9e46",
          "blockNumber": "0x11ab4b4",
          "transactionHash": "0xdd3b2b9b4cb86e50f195306c18c760ce5ba2e4168797cef8eaec15e7e7fc8740",
          "transactionIndex": "0x13",
          "logIndex": "0x49",
          "removed": false
        }
      ],
      "status": "0x1",
      "logsBloom": "0x00000004000000000000000000000000000000000000000000000000000000000000000000000000000000000000000000000000000000000000000000000000000000100000000000000000000000000000000000000000000000800000000000000000000000000000000000000010002000000000000000000200000000000000000000000000000000000000000008000000020000000000000000000000000000000000000000000000000000000000000000000000001000000002000000000000000000000000000000000000000000400000000100000000000000000000000000004000000000000000000100000000000000000200000000000000",
      "type": "0x2",
      "effectiveGasPrice": "0x986231e9f"
    },
    {
      "transactionHash": "0xab0dc0445f35f54d72e1aca060002d0bdcdb250d809c4d1ae99fd97840c7f021",
      "transactionIndex": "0x30",
      "blockHash": "0xf594d2e22fba34166bb5af64a2fbe4e0eb316d74e8d384c4c6debe14dee66fb7",
      "blockNumber": "0x11ab4b6",
      "from": "0x207E804758e28F2b3fD6E4219671B327100b82f8",
      "to": "0xD6E4aA932147A3FE5311dA1b67D9e73da06F9cEf",
      "cumulativeGasUsed": "0x5382dc",
      "gasUsed": "0xc522",
      "contractAddress": null,
      "logs": [
        {
          "address": "0xD6E4aA932147A3FE5311dA1b67D9e73da06F9cEf",
          "topics": [
            "0xf6391f5c32d9c69d2a47ea670b442974b53935d1edc7fd64eb21e047a839171b",
            "0xcc8edc991cb080954074ef217f195cb7b2d172dd844d3b763f78014408eae224",
            "0x000000000000000000000000207e804758e28f2b3fd6e4219671b327100b82f8",
            "0x000000000000000000000000207e804758e28f2b3fd6e4219671b327100b82f8"
          ],
          "data": "0x",
          "blockHash": "0xf594d2e22fba34166bb5af64a2fbe4e0eb316d74e8d384c4c6debe14dee66fb7",
          "blockNumber": "0x11ab4b6",
          "transactionHash": "0xab0dc0445f35f54d72e1aca060002d0bdcdb250d809c4d1ae99fd97840c7f021",
          "transactionIndex": "0x30",
          "logIndex": "0xb7",
          "removed": false
        }
      ],
      "status": "0x1",
      "logsBloom": "0x00000000000000000000000000000000000000000000000000000000000000000000000000000000000000000000000000200000000000000000000000000000000000100000000000000000000000000000000000000000000000000000000040000000000000000000000000000000002000000000000000000200000000000000000040000000000000000000000000000000020000000000000000000000000000000000000000000000000000000000000000000000000000000002000000000000000000000000000000000000000000400000000000000000000000000000000000004000000000000000000100000000000000000200000000000000",
      "type": "0x2",
      "effectiveGasPrice": "0x8e6932143"
    },
    {
      "transactionHash": "0x4619b0f7ab8c2c64042e97fe3ce3983bf094fe1726491d0793786b2b9a27bd41",
      "transactionIndex": "0x29",
      "blockHash": "0xe6cab18b21c2f54da94c0f0915dc1bc2a1433803dc3612649bc416186f9a03e9",
      "blockNumber": "0x11ab4b8",
      "from": "0x207E804758e28F2b3fD6E4219671B327100b82f8",
      "to": "0xD6E4aA932147A3FE5311dA1b67D9e73da06F9cEf",
      "cumulativeGasUsed": "0x4086d0",
      "gasUsed": "0xb15b",
      "contractAddress": null,
      "logs": [
        {
          "address": "0xD6E4aA932147A3FE5311dA1b67D9e73da06F9cEf",
          "topics": [
            "0xf6391f5c32d9c69d2a47ea670b442974b53935d1edc7fd64eb21e047a839171b",
            "0x0000000000000000000000000000000000000000000000000000000000000000",
            "0x000000000000000000000000432abccb04ddd86db9aa91fa3e03fb566270c9ff",
            "0x000000000000000000000000207e804758e28f2b3fd6e4219671b327100b82f8"
          ],
          "data": "0x",
          "blockHash": "0xe6cab18b21c2f54da94c0f0915dc1bc2a1433803dc3612649bc416186f9a03e9",
          "blockNumber": "0x11ab4b8",
          "transactionHash": "0x4619b0f7ab8c2c64042e97fe3ce3983bf094fe1726491d0793786b2b9a27bd41",
          "transactionIndex": "0x29",
          "logIndex": "0x88",
          "removed": false
        }
      ],
      "status": "0x1",
      "logsBloom": "0x00000000000000000000000000000000000000000000000000000000000000000000000000000000000000000000000000200000000200000000000000000000000000100000000000000000000000000000000000000400000000000000000040000000020000000000000000000800002000000000000000000200000000000000000040000000000000000000000000000000000000000000000000000000000000000000000000000000000000000000000000000000000000000000000000080000000000000000000000000000000000400000000000000000000020000000000000004000000000000000000100000000000000000000000000000000",
      "type": "0x2",
      "effectiveGasPrice": "0x928752dc8"
    },
    {
      "transactionHash": "0xceadfbb077d5a1494f85c56df13e0c55dfe5488f1c7947d5baadcfc38009473f",
      "transactionIndex": "0x21",
      "blockHash": "0x59e8dbf58fc54d190165129a101aa6e1f05416156eb568e4f81e2391452ace27",
      "blockNumber": "0x11ab4ba",
      "from": "0x207E804758e28F2b3fD6E4219671B327100b82f8",
      "to": "0xD6E4aA932147A3FE5311dA1b67D9e73da06F9cEf",
      "cumulativeGasUsed": "0x2d94f6",
      "gasUsed": "0xc3ef",
      "contractAddress": null,
      "logs": [
        {
          "address": "0xD6E4aA932147A3FE5311dA1b67D9e73da06F9cEf",
          "topics": [
            "0xf6391f5c32d9c69d2a47ea670b442974b53935d1edc7fd64eb21e047a839171b",
            "0x0000000000000000000000000000000000000000000000000000000000000000",
            "0x000000000000000000000000207e804758e28f2b3fd6e4219671b327100b82f8",
            "0x000000000000000000000000207e804758e28f2b3fd6e4219671b327100b82f8"
          ],
          "data": "0x",
          "blockHash": "0x59e8dbf58fc54d190165129a101aa6e1f05416156eb568e4f81e2391452ace27",
          "blockNumber": "0x11ab4ba",
          "transactionHash": "0xceadfbb077d5a1494f85c56df13e0c55dfe5488f1c7947d5baadcfc38009473f",
          "transactionIndex": "0x21",
          "logIndex": "0x55",
          "removed": false
        }
      ],
      "status": "0x1",
      "logsBloom": "0x00000000000000000000000000000000000000000000000000000000000000000000000000000000000000000000000000200000000000000000000000000000000000100000000000000000000000000000000000000000000000000000000040000000020000000000000000000800002000000000000000000200000000000000000040000000000000000000000000000000000000000000000000000000000000000000000000000000000000000000000000000000000000000000000000000000000000000000000000000000000000400000000000000000000020000000000000004000000000000000000100000000000000000000000000000000",
      "type": "0x2",
      "effectiveGasPrice": "0x8e0731355"
    },
    {
      "transactionHash": "0xbb94097e6f3b7c1c824b870cd53a5e61f9d870225ce19fb7215e722067c6beb7",
      "transactionIndex": "0x14",
      "blockHash": "0xf3c92f9189bf684f19bfe7d67efa1d20c3271c85c9e0dae2025e3468c8d4d3ea",
      "blockNumber": "0x11ab4bc",
      "from": "0x207E804758e28F2b3fD6E4219671B327100b82f8",
      "to": "0xe3cBd06D7dadB3F4e6557bAb7EdD924CD1489E8f",
      "cumulativeGasUsed": "0x2380c7",
      "gasUsed": "0x1a6e5",
      "contractAddress": null,
      "logs": [
        {
          "address": "0xe3cBd06D7dadB3F4e6557bAb7EdD924CD1489E8f",
          "topics": [
            "0x2f8788117e7eff1d82e926ec794901d17c78024a50270940304540a733656f0d",
            "0x8ea5b4dbd68db0bf23bf4cda958b61a749f8c5aec6f2912d75a03246753ddd16",
            "0x000000000000000000000000432abccb04ddd86db9aa91fa3e03fb566270c9ff",
            "0x000000000000000000000000207e804758e28f2b3fd6e4219671b327100b82f8"
          ],
          "data": "0x",
          "blockHash": "0xf3c92f9189bf684f19bfe7d67efa1d20c3271c85c9e0dae2025e3468c8d4d3ea",
          "blockNumber": "0x11ab4bc",
          "transactionHash": "0xbb94097e6f3b7c1c824b870cd53a5e61f9d870225ce19fb7215e722067c6beb7",
          "transactionIndex": "0x14",
          "logIndex": "0x3f",
          "removed": false
        }
      ],
      "status": "0x1",
      "logsBloom": "0x00000004000000000000000000000000000000000000000000000000000000000000020000000000000000000000000100800000000200800000000000000000000000000000000000000000000000000000000000000400000000000000000000000000000000000000000000000000002000000000000000000000000000000000000001000000000000000000000000000000000000000000000000000000000000000000000000000000000000000000000000000000001000000000000000080000000000000000000000000000000000400000000100000000000000000000000000004000000000000000000000000000000000000000000000000200",
      "type": "0x2",
      "effectiveGasPrice": "0x9033ca9dc"
    },
    {
      "transactionHash": "0xfdb6fab885734e936b8721e90474eb51c2b69bdf3e44034c5721d3c4e132fc74",
      "transactionIndex": "0x17",
      "blockHash": "0x1da5f61eed2331b1b5bd83bdd6714611ef68c0cfb64a6bcc1f8600cbf1d5779a",
      "blockNumber": "0x11ab4be",
      "from": "0x207E804758e28F2b3fD6E4219671B327100b82f8",
      "to": "0xe3cBd06D7dadB3F4e6557bAb7EdD924CD1489E8f",
      "cumulativeGasUsed": "0x234f7b",
      "gasUsed": "0xc558",
      "contractAddress": null,
      "logs": [
        {
          "address": "0xe3cBd06D7dadB3F4e6557bAb7EdD924CD1489E8f",
          "topics": [
            "0xf6391f5c32d9c69d2a47ea670b442974b53935d1edc7fd64eb21e047a839171b",
            "0x8ea5b4dbd68db0bf23bf4cda958b61a749f8c5aec6f2912d75a03246753ddd16",
            "0x000000000000000000000000207e804758e28f2b3fd6e4219671b327100b82f8",
            "0x000000000000000000000000207e804758e28f2b3fd6e4219671b327100b82f8"
          ],
          "data": "0x",
          "blockHash": "0x1da5f61eed2331b1b5bd83bdd6714611ef68c0cfb64a6bcc1f8600cbf1d5779a",
          "blockNumber": "0x11ab4be",
          "transactionHash": "0xfdb6fab885734e936b8721e90474eb51c2b69bdf3e44034c5721d3c4e132fc74",
          "transactionIndex": "0x17",
          "logIndex": "0x43",
          "removed": false
        }
      ],
      "status": "0x1",
      "logsBloom": "0x00000000000000000000000000000000000000000000000000000000000000000000020000000000000000000000000100a00000000000800000000000000000000000000000000000000000000000000000000000000000000000000000000040000000000000000000000000000000002000000000000000000000000000000000000041000000000000000000000000000000000000000000000000000000000000000000000000000000000000000000000000000000000000000000000000000000000000000000000000000000000000400000000000000000000000000000000000004000000000000000000000000000000000000000000000000200",
      "type": "0x2",
      "effectiveGasPrice": "0x8fc33fc78"
    },
    {
      "transactionHash": "0x9b13c456b25d6a4a4e8e1c2e8594044e89589cfdc427396f8d289d1e572308d6",
      "transactionIndex": "0x48",
      "blockHash": "0x5a4e3e8f4f54242d8207ca50ebebe9de4447a075b93302b53a3aace065b8b707",
      "blockNumber": "0x11ab4c0",
      "from": "0x207E804758e28F2b3fD6E4219671B327100b82f8",
      "to": "0xe3cBd06D7dadB3F4e6557bAb7EdD924CD1489E8f",
      "cumulativeGasUsed": "0x7402cb",
      "gasUsed": "0x1a6e5",
      "contractAddress": null,
      "logs": [
        {
          "address": "0xe3cBd06D7dadB3F4e6557bAb7EdD924CD1489E8f",
          "topics": [
            "0x2f8788117e7eff1d82e926ec794901d17c78024a50270940304540a733656f0d",
            "0xa6b5d83d32632203555cb9b2c2f68a8d94da48cadd9266ac0d17babedb52ea5b",
            "0x0000000000000000000000004e59e778a0fb77fbb305637435c62faed9aed40f",
            "0x000000000000000000000000207e804758e28f2b3fd6e4219671b327100b82f8"
          ],
          "data": "0x",
          "blockHash": "0x5a4e3e8f4f54242d8207ca50ebebe9de4447a075b93302b53a3aace065b8b707",
          "blockNumber": "0x11ab4c0",
          "transactionHash": "0x9b13c456b25d6a4a4e8e1c2e8594044e89589cfdc427396f8d289d1e572308d6",
          "transactionIndex": "0x48",
          "logIndex": "0xd7",
          "removed": false
        }
      ],
      "status": "0x1",
      "logsBloom": "0x00000004000000000000000000000000000000000000000000000000000000010000020000000004000000000000000000800000000000000000000000000000000000000000000000000000000000000000000000000000000000800000000000000000000000000000000000000010002000000000000000000000000000000000000001000000000000000000000008000000000000000000000000000000000000000000000000000000000000000000000000000000001000000000000000000000000000000000000000000000000000400000000100000000000000000000000000004000000000000000000000000000100000000000000000000000",
      "type": "0x2",
      "effectiveGasPrice": "0x8f1ce158f"
    },
    {
      "transactionHash": "0x24e189835c4644a8ef77f28fbccc14811c2651208e15e91456748c2ebbc28c54",
      "transactionIndex": "0xa",
      "blockHash": "0x6b48c4abb86cafff2dfca7bc94b75ec436f78bd09d490422557750baa8af4502",
      "blockNumber": "0x11ab4c2",
      "from": "0x207E804758e28F2b3fD6E4219671B327100b82f8",
      "to": "0xe3cBd06D7dadB3F4e6557bAb7EdD924CD1489E8f",
      "cumulativeGasUsed": "0x11afad",
      "gasUsed": "0xd355",
      "contractAddress": null,
      "logs": [
        {
          "address": "0xe3cBd06D7dadB3F4e6557bAb7EdD924CD1489E8f",
          "topics": [
            "0xf6391f5c32d9c69d2a47ea670b442974b53935d1edc7fd64eb21e047a839171b",
            "0xa6b5d83d32632203555cb9b2c2f68a8d94da48cadd9266ac0d17babedb52ea5b",
            "0x000000000000000000000000432abccb04ddd86db9aa91fa3e03fb566270c9ff",
            "0x000000000000000000000000207e804758e28f2b3fd6e4219671b327100b82f8"
          ],
          "data": "0x",
          "blockHash": "0x6b48c4abb86cafff2dfca7bc94b75ec436f78bd09d490422557750baa8af4502",
          "blockNumber": "0x11ab4c2",
          "transactionHash": "0x24e189835c4644a8ef77f28fbccc14811c2651208e15e91456748c2ebbc28c54",
          "transactionIndex": "0xa",
          "logIndex": "0x33",
          "removed": false
        }
      ],
      "status": "0x1",
      "logsBloom": "0x00000000000000000000000000000000000000000000000000000000000000010000020000000004000000000000000000a00000000200000000000000000000000000000000000000000000000000000000000000000400000000000000000040000000000000000000000000000000002000000000000000000000000000000000000041000000000000000000000000000000000000000000000000000000000000000000000000000000000000000000000000000000000000000000000000080000000000000000000000000000000000400000000000000000000000000000000000004000000000000000000000000000100000000000000000000000",
      "type": "0x2",
      "effectiveGasPrice": "0x9c71ca780"
    },
    {
      "transactionHash": "0xe9e5204e52b0df5881cf84f69c916a8e9edb7d52c99ffd43fdfd58f6e36a8b61",
      "transactionIndex": "0x12",
      "blockHash": "0x4fd80648a6ff9244404e02b544e5692fa23df762b8a23991d179bda04e688db4",
      "blockNumber": "0x11ab4c4",
      "from": "0x207E804758e28F2b3fD6E4219671B327100b82f8",
      "to": "0xe3cBd06D7dadB3F4e6557bAb7EdD924CD1489E8f",
      "cumulativeGasUsed": "0x228478",
      "gasUsed": "0xc558",
      "contractAddress": null,
      "logs": [
        {
          "address": "0xe3cBd06D7dadB3F4e6557bAb7EdD924CD1489E8f",
          "topics": [
            "0xf6391f5c32d9c69d2a47ea670b442974b53935d1edc7fd64eb21e047a839171b",
            "0xa6b5d83d32632203555cb9b2c2f68a8d94da48cadd9266ac0d17babedb52ea5b",
            "0x000000000000000000000000207e804758e28f2b3fd6e4219671b327100b82f8",
            "0x000000000000000000000000207e804758e28f2b3fd6e4219671b327100b82f8"
          ],
          "data": "0x",
          "blockHash": "0x4fd80648a6ff9244404e02b544e5692fa23df762b8a23991d179bda04e688db4",
          "blockNumber": "0x11ab4c4",
          "transactionHash": "0xe9e5204e52b0df5881cf84f69c916a8e9edb7d52c99ffd43fdfd58f6e36a8b61",
          "transactionIndex": "0x12",
          "logIndex": "0x54",
          "removed": false
        }
      ],
      "status": "0x1",
      "logsBloom": "0x00000000000000000000000000000000000000000000000000000000000000010000020000000004000000000000000000a00000000000000000000000000000000000000000000000000000000000000000000000000000000000000000000040000000000000000000000000000000002000000000000000000000000000000000000041000000000000000000000000000000000000000000000000000000000000000000000000000000000000000000000000000000000000000000000000000000000000000000000000000000000000400000000000000000000000000000000000004000000000000000000000000000100000000000000000000000",
      "type": "0x2",
      "effectiveGasPrice": "0x98b36ed6b"
    },
    {
      "transactionHash": "0x31dd364b228d0eb075545cb792e5d50c811aea6f54d7c3b28794238d1c915e35",
      "transactionIndex": "0x39",
      "blockHash": "0x3c2d94d8a19a675624138324bee7e89fb6c33762b1acf9ce445d7941e58a5048",
      "blockNumber": "0x11ab4c6",
      "from": "0x207E804758e28F2b3fD6E4219671B327100b82f8",
      "to": "0xe3cBd06D7dadB3F4e6557bAb7EdD924CD1489E8f",
      "cumulativeGasUsed": "0x4c9f73",
      "gasUsed": "0xb15c",
      "contractAddress": null,
      "logs": [
        {
          "address": "0xe3cBd06D7dadB3F4e6557bAb7EdD924CD1489E8f",
          "topics": [
            "0xf6391f5c32d9c69d2a47ea670b442974b53935d1edc7fd64eb21e047a839171b",
            "0x0000000000000000000000000000000000000000000000000000000000000000",
            "0x000000000000000000000000432abccb04ddd86db9aa91fa3e03fb566270c9ff",
            "0x000000000000000000000000207e804758e28f2b3fd6e4219671b327100b82f8"
          ],
          "data": "0x",
          "blockHash": "0x3c2d94d8a19a675624138324bee7e89fb6c33762b1acf9ce445d7941e58a5048",
          "blockNumber": "0x11ab4c6",
          "transactionHash": "0x31dd364b228d0eb075545cb792e5d50c811aea6f54d7c3b28794238d1c915e35",
          "transactionIndex": "0x39",
          "logIndex": "0xae",
          "removed": false
        }
      ],
      "status": "0x1",
      "logsBloom": "0x00000000000000000000000000000000000000000000000000000000000000000000020000000000000000000000000000a00000000200000000000000000000000000000000000000000000000000000000000000000400000000000000000040000000020000000000000000000800002000000000000000000000000000000000000041000000000000000000000000000000000000000000000000000000000000000000000000000000000000000000000000000000000000000000000000080000000000000000000000000000000000400000000000000000000020000000000000004000000000000000000000000000000000000000000000000000",
      "type": "0x2",
      "effectiveGasPrice": "0x96437fd50"
    },
    {
      "transactionHash": "0xfde90bf553c3f15c7a3d9f867b2f7ba0df59b2a994680ae77511332adf6bf25c",
      "transactionIndex": "0x26",
      "blockHash": "0xad0f2da80a79d26678bd5391da4567d7fd88e37328f1845553bd625db0e14101",
      "blockNumber": "0x11ab4c8",
      "from": "0x207E804758e28F2b3fD6E4219671B327100b82f8",
      "to": "0xe3cBd06D7dadB3F4e6557bAb7EdD924CD1489E8f",
      "cumulativeGasUsed": "0x367ef3",
      "gasUsed": "0xc425",
      "contractAddress": null,
      "logs": [
        {
          "address": "0xe3cBd06D7dadB3F4e6557bAb7EdD924CD1489E8f",
          "topics": [
            "0xf6391f5c32d9c69d2a47ea670b442974b53935d1edc7fd64eb21e047a839171b",
            "0x0000000000000000000000000000000000000000000000000000000000000000",
            "0x000000000000000000000000207e804758e28f2b3fd6e4219671b327100b82f8",
            "0x000000000000000000000000207e804758e28f2b3fd6e4219671b327100b82f8"
          ],
          "data": "0x",
          "blockHash": "0xad0f2da80a79d26678bd5391da4567d7fd88e37328f1845553bd625db0e14101",
          "blockNumber": "0x11ab4c8",
          "transactionHash": "0xfde90bf553c3f15c7a3d9f867b2f7ba0df59b2a994680ae77511332adf6bf25c",
          "transactionIndex": "0x26",
          "logIndex": "0x67",
          "removed": false
        }
      ],
      "status": "0x1",
      "logsBloom": "0x00000000000000000000000000000000000000000000000000000000000000000000020000000000000000000000000000a00000000000000000000000000000000000000000000000000000000000000000000000000000000000000000000040000000020000000000000000000800002000000000000000000000000000000000000041000000000000000000000000000000000000000000000000000000000000000000000000000000000000000000000000000000000000000000000000000000000000000000000000000000000000400000000000000000000020000000000000004000000000000000000000000000000000000000000000000000",
      "type": "0x2",
      "effectiveGasPrice": "0x8ce6ebe76"
    },
    {
      "transactionHash": "0xa9b1bbe5bf4396aadfb890714b1a2b1b867fd15e3950ad748e5265adc41efc67",
      "transactionIndex": "0x12",
      "blockHash": "0xddfaf529eb9630bb410a04f205634c9dcf757ab9852a51f553b20613a0517b5e",
      "blockNumber": "0x11ab4ca",
      "from": "0x207E804758e28F2b3fD6E4219671B327100b82f8",
      "to": "0x38fDF7b489316e03eD8754ad339cb5c4483FDcf9",
      "cumulativeGasUsed": "0x458577",
      "gasUsed": "0x1a6cf",
      "contractAddress": null,
      "logs": [
        {
          "address": "0x38fDF7b489316e03eD8754ad339cb5c4483FDcf9",
          "topics": [
            "0x2f8788117e7eff1d82e926ec794901d17c78024a50270940304540a733656f0d",
            "0x241ecf16d79d0f8dbfb92cbc07fe17840425976cf0667f022fe9877caa831b08",
            "0x0000000000000000000000004e59e778a0fb77fbb305637435c62faed9aed40f",
            "0x000000000000000000000000207e804758e28f2b3fd6e4219671b327100b82f8"
          ],
          "data": "0x",
          "blockHash": "0xddfaf529eb9630bb410a04f205634c9dcf757ab9852a51f553b20613a0517b5e",
          "blockNumber": "0x11ab4ca",
          "transactionHash": "0xa9b1bbe5bf4396aadfb890714b1a2b1b867fd15e3950ad748e5265adc41efc67",
          "transactionIndex": "0x12",
          "logIndex": "0x66",
          "removed": false
        }
      ],
      "status": "0x1",
      "logsBloom": "0x00000004000000000000000000000000000000000000000000000000000000000000000000000000000000000000000000000000000000000000000000000000000000000020000000000000000000000000000000000000000000800000000000000000000000000004000000000010002000000000000000000000000000000000000010000000000000000000000008000000000000000000000000000000000000000000000000000000000000000000000000000000001000000000000000000000000000000000020000000100000000400000000100000000000000004000000000004000000000000000000000000000000000000000000000000000",
      "type": "0x2",
      "effectiveGasPrice": "0x97f459369"
    },
    {
      "transactionHash": "0xe8c18f587b474d3610d8b4e1712da1c1410c5fb2bc15123a47737fa9782b7746",
      "transactionIndex": "0x11",
      "blockHash": "0xd5ca10dafde2ecac666b9e1ef25315d9bd389d798cf26d0e3ae124eee0e8ecae",
      "blockNumber": "0x11ab4cc",
      "from": "0x207E804758e28F2b3fD6E4219671B327100b82f8",
      "to": "0x38fDF7b489316e03eD8754ad339cb5c4483FDcf9",
      "cumulativeGasUsed": "0x19cf6b",
      "gasUsed": "0xd355",
      "contractAddress": null,
      "logs": [
        {
          "address": "0x38fDF7b489316e03eD8754ad339cb5c4483FDcf9",
          "topics": [
            "0xf6391f5c32d9c69d2a47ea670b442974b53935d1edc7fd64eb21e047a839171b",
            "0x241ecf16d79d0f8dbfb92cbc07fe17840425976cf0667f022fe9877caa831b08",
            "0x000000000000000000000000432abccb04ddd86db9aa91fa3e03fb566270c9ff",
            "0x000000000000000000000000207e804758e28f2b3fd6e4219671b327100b82f8"
          ],
          "data": "0x",
          "blockHash": "0xd5ca10dafde2ecac666b9e1ef25315d9bd389d798cf26d0e3ae124eee0e8ecae",
          "blockNumber": "0x11ab4cc",
          "transactionHash": "0xe8c18f587b474d3610d8b4e1712da1c1410c5fb2bc15123a47737fa9782b7746",
          "transactionIndex": "0x11",
          "logIndex": "0x2e",
          "removed": false
        }
      ],
      "status": "0x1",
      "logsBloom": "0x00000000000000000000000000000000000000000000000000000000000000000000000000000000000000000000000000200000000200000000000000000000000000000020000000000000000000000000000000000400000000000000000040000000000000000004000000000000002000000000000000000000000000000000000050000000000000000000000000000000000000000000000000000000000000000000000000000000000000000000000000000000000000000000000000080000000000000000020000000100000000400000000000000000000000004000000000004000000000000000000000000000000000000000000000000000",
      "type": "0x2",
      "effectiveGasPrice": "0x95797ffdd"
    },
    {
      "transactionHash": "0xc57c4985516b08b38a1702ddba1f19b3a58ce12c651bb9758055546df9d4f698",
      "transactionIndex": "0x19",
      "blockHash": "0x1843a9b38bfa8eefd79f3d9f43e7f36b86c9db27a69ea33f8928ca8a75490e25",
      "blockNumber": "0x11ab4ce",
      "from": "0x207E804758e28F2b3fD6E4219671B327100b82f8",
      "to": "0x38fDF7b489316e03eD8754ad339cb5c4483FDcf9",
      "cumulativeGasUsed": "0x2ad109",
      "gasUsed": "0xc569",
      "contractAddress": null,
      "logs": [
        {
          "address": "0x38fDF7b489316e03eD8754ad339cb5c4483FDcf9",
          "topics": [
            "0xf6391f5c32d9c69d2a47ea670b442974b53935d1edc7fd64eb21e047a839171b",
            "0x241ecf16d79d0f8dbfb92cbc07fe17840425976cf0667f022fe9877caa831b08",
            "0x000000000000000000000000207e804758e28f2b3fd6e4219671b327100b82f8",
            "0x000000000000000000000000207e804758e28f2b3fd6e4219671b327100b82f8"
          ],
          "data": "0x",
          "blockHash": "0x1843a9b38bfa8eefd79f3d9f43e7f36b86c9db27a69ea33f8928ca8a75490e25",
          "blockNumber": "0x11ab4ce",
          "transactionHash": "0xc57c4985516b08b38a1702ddba1f19b3a58ce12c651bb9758055546df9d4f698",
          "transactionIndex": "0x19",
          "logIndex": "0x67",
          "removed": false
        }
      ],
      "status": "0x1",
      "logsBloom": "0x00000000000000000000000000000000000000000000000000000000000000000000000000000000000000000000000000200000000000000000000000000000000000000020000000000000000000000000000000000000000000000000000040000000000000000004000000000000002000000000000000000000000000000000000050000000000000000000000000000000000000000000000000000000000000000000000000000000000000000000000000000000000000000000000000000000000000000000020000000100000000400000000000000000000000004000000000004000000000000000000000000000000000000000000000000000",
      "type": "0x2",
      "effectiveGasPrice": "0x92d4544be"
    },
    {
      "transactionHash": "0x6b6fe92878c9f80bd7d86098c8cf392bde6066fea98a8acfef86533de015b143",
      "transactionIndex": "0x45",
      "blockHash": "0x4529372b4a4fb346f284381ea97666de1c87d9b7e5f0a7194a9612b23424e950",
      "blockNumber": "0x11ab4d0",
      "from": "0x207E804758e28F2b3fD6E4219671B327100b82f8",
      "to": "0x38fDF7b489316e03eD8754ad339cb5c4483FDcf9",
      "cumulativeGasUsed": "0x760d9f",
      "gasUsed": "0x1a6cf",
      "contractAddress": null,
      "logs": [
        {
          "address": "0x38fDF7b489316e03eD8754ad339cb5c4483FDcf9",
          "topics": [
            "0x2f8788117e7eff1d82e926ec794901d17c78024a50270940304540a733656f0d",
            "0xef6d3da212345543d99125b43af0bc451d30ffaf90d4560558d702b21179a70f",
            "0x0000000000000000000000004e59e778a0fb77fbb305637435c62faed9aed40f",
            "0x000000000000000000000000207e804758e28f2b3fd6e4219671b327100b82f8"
          ],
          "data": "0x",
          "blockHash": "0x4529372b4a4fb346f284381ea97666de1c87d9b7e5f0a7194a9612b23424e950",
          "blockNumber": "0x11ab4d0",
          "transactionHash": "0x6b6fe92878c9f80bd7d86098c8cf392bde6066fea98a8acfef86533de015b143",
          "transactionIndex": "0x45",
          "logIndex": "0xbd",
          "removed": false
        }
      ],
      "status": "0x1",
      "logsBloom": "0x00000004000000000000000000000000000000000000000000000000000000000000000000000000000000000000000000000000000000000000000000000000000000000000000000000000000000000000000000000000000000800000000000000000000000000000000000000010002000000000000000000000000000000000000010000000200000000000000008000000000000000000000000000000000000000000000000000004000000000000000000000000001000000000000000000000040000000000000000000100000000400000000100000000000000004000000000004000000000000000000000000000000000000000000000000000",
      "type": "0x2",
      "effectiveGasPrice": "0xa1b4adafc"
    },
    {
      "transactionHash": "0x6a1e28fb2b16cb1704eaf9b08841565988f84dbb16f278462ee24d31cbed7c8a",
      "transactionIndex": "0x77",
      "blockHash": "0x42ec896605061d3a1a3cd8343d2a0d86c50446a59e39ed799516c8cba816689d",
      "blockNumber": "0x11ab4d2",
      "from": "0x207E804758e28F2b3fD6E4219671B327100b82f8",
      "to": "0x38fDF7b489316e03eD8754ad339cb5c4483FDcf9",
      "cumulativeGasUsed": "0xa72540",
      "gasUsed": "0xc569",
      "contractAddress": null,
      "logs": [
        {
          "address": "0x38fDF7b489316e03eD8754ad339cb5c4483FDcf9",
          "topics": [
            "0xf6391f5c32d9c69d2a47ea670b442974b53935d1edc7fd64eb21e047a839171b",
            "0xef6d3da212345543d99125b43af0bc451d30ffaf90d4560558d702b21179a70f",
            "0x000000000000000000000000207e804758e28f2b3fd6e4219671b327100b82f8",
            "0x000000000000000000000000207e804758e28f2b3fd6e4219671b327100b82f8"
          ],
          "data": "0x",
          "blockHash": "0x42ec896605061d3a1a3cd8343d2a0d86c50446a59e39ed799516c8cba816689d",
          "blockNumber": "0x11ab4d2",
          "transactionHash": "0x6a1e28fb2b16cb1704eaf9b08841565988f84dbb16f278462ee24d31cbed7c8a",
          "transactionIndex": "0x77",
          "logIndex": "0x101",
          "removed": false
        }
      ],
      "status": "0x1",
      "logsBloom": "0x00000000000000000000000000000000000000000000000000000000000000000000000000000000000000000000000000200000000000000000000000000000000000000000000000000000000000000000000000000000000000000000000040000000000000000000000000000000002000000000000000000000000000000000000050000000200000000000000000000000000000000000000000000000000000000000000000000004000000000000000000000000000000000000000000000000040000000000000000000100000000400000000000000000000000004000000000004000000000000000000000000000000000000000000000000000",
      "type": "0x2",
      "effectiveGasPrice": "0x9873acc84"
    },
    {
      "transactionHash": "0x70680b5d5bbe4c8c6c7f8d95395eb5d4254727cc7e19bc2c79097c561ed1396b",
      "transactionIndex": "0x24",
      "blockHash": "0xbd5443e2c21b05894ae24cc8384700a18c694dbbb254ccfa3bc59b7bd40fa9fb",
      "blockNumber": "0x11ab4d4",
      "from": "0x207E804758e28F2b3fD6E4219671B327100b82f8",
      "to": "0x38fDF7b489316e03eD8754ad339cb5c4483FDcf9",
      "cumulativeGasUsed": "0x476430",
      "gasUsed": "0xb15c",
      "contractAddress": null,
      "logs": [
        {
          "address": "0x38fDF7b489316e03eD8754ad339cb5c4483FDcf9",
          "topics": [
            "0xf6391f5c32d9c69d2a47ea670b442974b53935d1edc7fd64eb21e047a839171b",
            "0x0000000000000000000000000000000000000000000000000000000000000000",
            "0x000000000000000000000000432abccb04ddd86db9aa91fa3e03fb566270c9ff",
            "0x000000000000000000000000207e804758e28f2b3fd6e4219671b327100b82f8"
          ],
          "data": "0x",
          "blockHash": "0xbd5443e2c21b05894ae24cc8384700a18c694dbbb254ccfa3bc59b7bd40fa9fb",
          "blockNumber": "0x11ab4d4",
          "transactionHash": "0x70680b5d5bbe4c8c6c7f8d95395eb5d4254727cc7e19bc2c79097c561ed1396b",
          "transactionIndex": "0x24",
          "logIndex": "0x74",
          "removed": false
        }
      ],
      "status": "0x1",
      "logsBloom": "0x00000000000000000000000000000000000000000000000000000000000000000000000000000000000000000000000000200000000200000000000000000000000000000000000000000000000000000000000000000400000000000000000040000000020000000000000000000800002000000000000000000000000000000000000050000000000000000000000000000000000000000000000000000000000000000000000000000000000000000000000000000000000000000000000000080000000000000000000000000100000000400000000000000000000020004000000000004000000000000000000000000000000000000000000000000000",
      "type": "0x2",
      "effectiveGasPrice": "0x93cc149a8"
    },
    {
      "transactionHash": "0xca98d25ea4a73790a8f44b35efeb147950478e4663af73ef224704a41112431e",
      "transactionIndex": "0x17",
      "blockHash": "0x8216198e1f86e63c562a5229b00b96948216c194e2b9d88b6d4b2410945b125f",
      "blockNumber": "0x11ab4d6",
      "from": "0x207E804758e28F2b3fD6E4219671B327100b82f8",
      "to": "0x38fDF7b489316e03eD8754ad339cb5c4483FDcf9",
      "cumulativeGasUsed": "0x24b255",
      "gasUsed": "0xc436",
      "contractAddress": null,
      "logs": [
        {
          "address": "0x38fDF7b489316e03eD8754ad339cb5c4483FDcf9",
          "topics": [
            "0xf6391f5c32d9c69d2a47ea670b442974b53935d1edc7fd64eb21e047a839171b",
            "0x0000000000000000000000000000000000000000000000000000000000000000",
            "0x000000000000000000000000207e804758e28f2b3fd6e4219671b327100b82f8",
            "0x000000000000000000000000207e804758e28f2b3fd6e4219671b327100b82f8"
          ],
          "data": "0x",
          "blockHash": "0x8216198e1f86e63c562a5229b00b96948216c194e2b9d88b6d4b2410945b125f",
          "blockNumber": "0x11ab4d6",
          "transactionHash": "0xca98d25ea4a73790a8f44b35efeb147950478e4663af73ef224704a41112431e",
          "transactionIndex": "0x17",
          "logIndex": "0x50",
          "removed": false
        }
      ],
      "status": "0x1",
      "logsBloom": "0x00000000000000000000000000000000000000000000000000000000000000000000000000000000000000000000000000200000000000000000000000000000000000000000000000000000000000000000000000000000000000000000000040000000020000000000000000000800002000000000000000000000000000000000000050000000000000000000000000000000000000000000000000000000000000000000000000000000000000000000000000000000000000000000000000000000000000000000000000000100000000400000000000000000000020004000000000004000000000000000000000000000000000000000000000000000",
      "type": "0x2",
      "effectiveGasPrice": "0x9322d274d"
    },
    {
      "transactionHash": "0x6015a331522b878b945f7472eecdfaf149ccbeaa39984b90380c1a20071e8f57",
      "transactionIndex": "0x19",
      "blockHash": "0x8caa2c85a01ff47542f5c2003e46af5f87e15634981a3ac9fa1b90cdd14ea4c5",
      "blockNumber": "0x11ab4d8",
      "from": "0x207E804758e28F2b3fD6E4219671B327100b82f8",
      "to": "0xd5F7838F5C461fefF7FE49ea5ebaF7728bB0ADfa",
      "cumulativeGasUsed": "0x4bf439",
      "gasUsed": "0xb149",
      "contractAddress": null,
      "logs": [
        {
          "address": "0xd5F7838F5C461fefF7FE49ea5ebaF7728bB0ADfa",
          "topics": [
            "0xf6391f5c32d9c69d2a47ea670b442974b53935d1edc7fd64eb21e047a839171b",
            "0x0000000000000000000000000000000000000000000000000000000000000000",
            "0x000000000000000000000000432abccb04ddd86db9aa91fa3e03fb566270c9ff",
            "0x000000000000000000000000207e804758e28f2b3fd6e4219671b327100b82f8"
          ],
          "data": "0x",
          "blockHash": "0x8caa2c85a01ff47542f5c2003e46af5f87e15634981a3ac9fa1b90cdd14ea4c5",
          "blockNumber": "0x11ab4d8",
          "transactionHash": "0x6015a331522b878b945f7472eecdfaf149ccbeaa39984b90380c1a20071e8f57",
          "transactionIndex": "0x19",
          "logIndex": "0x45",
          "removed": false
        }
      ],
      "status": "0x1",
      "logsBloom": "0x00000000000000000000000000000000000000000000000000000000000000200000000000000000000000000200000080200000000200000000000000000000000000000000000000000000000000000000000000000400000000000000000040000000020000000000000000000800002000000000000000000000000000000000000040000000000000000000000000000000000000000000000000000000000000000000000000000000000000000000000000000000000000000000000000080000000000000000000000000000000000400000000000000000000020000000000000004000000000000000000000000000000000000000000000000000",
      "type": "0x2",
      "effectiveGasPrice": "0x917c561ca"
    },
    {
      "transactionHash": "0xd418b66b0d5fa18e64399eb1dfbe354f830bb49060de24e8986b982d16540461",
      "transactionIndex": "0x43",
      "blockHash": "0x0d32444c8f54d2ae4cba160d3ce63285e308ce5f329d801d8845cb45ee000d58",
      "blockNumber": "0x11ab4d9",
      "from": "0x207E804758e28F2b3fD6E4219671B327100b82f8",
      "to": "0xd5F7838F5C461fefF7FE49ea5ebaF7728bB0ADfa",
      "cumulativeGasUsed": "0x85dee4",
      "gasUsed": "0xc400",
      "contractAddress": null,
      "logs": [
        {
          "address": "0xd5F7838F5C461fefF7FE49ea5ebaF7728bB0ADfa",
          "topics": [
            "0xf6391f5c32d9c69d2a47ea670b442974b53935d1edc7fd64eb21e047a839171b",
            "0x0000000000000000000000000000000000000000000000000000000000000000",
            "0x000000000000000000000000207e804758e28f2b3fd6e4219671b327100b82f8",
            "0x000000000000000000000000207e804758e28f2b3fd6e4219671b327100b82f8"
          ],
          "data": "0x",
          "blockHash": "0x0d32444c8f54d2ae4cba160d3ce63285e308ce5f329d801d8845cb45ee000d58",
          "blockNumber": "0x11ab4d9",
          "transactionHash": "0xd418b66b0d5fa18e64399eb1dfbe354f830bb49060de24e8986b982d16540461",
          "transactionIndex": "0x43",
          "logIndex": "0xc1",
          "removed": false
        }
      ],
      "status": "0x1",
      "logsBloom": "0x00000000000000000000000000000000000000000000000000000000000000200000000000000000000000000200000080200000000000000000000000000000000000000000000000000000000000000000000000000000000000000000000040000000020000000000000000000800002000000000000000000000000000000000000040000000000000000000000000000000000000000000000000000000000000000000000000000000000000000000000000000000000000000000000000000000000000000000000000000000000000400000000000000000000020000000000000004000000000000000000000000000000000000000000000000000",
      "type": "0x2",
      "effectiveGasPrice": "0x909f22f0b"
    },
    {
      "transactionHash": "0xaa3cac4190685274f93b443d953f28e317eab668444fe14454c019c64e129935",
      "transactionIndex": "0x2b",
      "blockHash": "0x1d756f9907ffbd7f400ffd0c049b49ea229aff7e50bccf2fcbe7de512bcbdec4",
      "blockNumber": "0x11ab4db",
      "from": "0x207E804758e28F2b3fD6E4219671B327100b82f8",
      "to": "0xc26016f1166bE7b6c5611AAB104122E0f6c2aCE2",
      "cumulativeGasUsed": "0x45db1f",
      "gasUsed": "0x72bb",
      "contractAddress": null,
      "logs": [
        {
          "address": "0xc26016f1166bE7b6c5611AAB104122E0f6c2aCE2",
          "topics": [
            "0xf6391f5c32d9c69d2a47ea670b442974b53935d1edc7fd64eb21e047a839171b",
            "0xd8aa0f3194971a2a116679f7c2090f6939c8d4e01a2a8d7e41d55e5351469e63",
            "0x000000000000000000000000432abccb04ddd86db9aa91fa3e03fb566270c9ff",
            "0x000000000000000000000000207e804758e28f2b3fd6e4219671b327100b82f8"
          ],
          "data": "0x",
          "blockHash": "0x1d756f9907ffbd7f400ffd0c049b49ea229aff7e50bccf2fcbe7de512bcbdec4",
          "blockNumber": "0x11ab4db",
          "transactionHash": "0xaa3cac4190685274f93b443d953f28e317eab668444fe14454c019c64e129935",
          "transactionIndex": "0x2b",
          "logIndex": "0xb3",
          "removed": false
        }
      ],
      "status": "0x1",
      "logsBloom": "0x00000000000000000020000000000000000000000000000000000000000000000000000000000000000000000001000000200000000200000200000010000000000000000000000000000000002000000000000000000400000000000000000040000000000000000000000000000000002000000000000000000000000000000000000040000000000000000000000000000000000000000000000000000000000000000000000000000000000000000000000000000020000000000000000000080000000000000000000000000000000000400000000000000000000000000000000000004000000000000000000000000000000000000000000000000000",
      "type": "0x2",
      "effectiveGasPrice": "0x9634179e4"
    },
    {
      "transactionHash": "0x784531380853d61dfea2a2613cacc47cab4f7c884141efe96deb97299b860aad",
      "transactionIndex": "0x15",
      "blockHash": "0x7fc1b8ef130580ab80acd0e65416c4d4c536093a4152c6971b76dc3588c6c5af",
      "blockNumber": "0x11ab4dd",
      "from": "0x207E804758e28F2b3fD6E4219671B327100b82f8",
      "to": "0xc26016f1166bE7b6c5611AAB104122E0f6c2aCE2",
      "cumulativeGasUsed": "0x2e3ed9",
      "gasUsed": "0x6154",
      "contractAddress": null,
      "logs": [
        {
          "address": "0xc26016f1166bE7b6c5611AAB104122E0f6c2aCE2",
          "topics": [
            "0xf6391f5c32d9c69d2a47ea670b442974b53935d1edc7fd64eb21e047a839171b",
            "0xd8aa0f3194971a2a116679f7c2090f6939c8d4e01a2a8d7e41d55e5351469e63",
            "0x000000000000000000000000207e804758e28f2b3fd6e4219671b327100b82f8",
            "0x000000000000000000000000207e804758e28f2b3fd6e4219671b327100b82f8"
          ],
          "data": "0x",
          "blockHash": "0x7fc1b8ef130580ab80acd0e65416c4d4c536093a4152c6971b76dc3588c6c5af",
          "blockNumber": "0x11ab4dd",
          "transactionHash": "0x784531380853d61dfea2a2613cacc47cab4f7c884141efe96deb97299b860aad",
          "transactionIndex": "0x15",
          "logIndex": "0x3a",
          "removed": false
        }
      ],
      "status": "0x1",
      "logsBloom": "0x00000000000000000020000000000000000000000000000000000000000000000000000000000000000000000001000000200000000000000200000010000000000000000000000000000000002000000000000000000000000000000000000040000000000000000000000000000000002000000000000000000000000000000000000040000000000000000000000000000000000000000000000000000000000000000000000000000000000000000000000000000020000000000000000000000000000000000000000000000000000000400000000000000000000000000000000000004000000000000000000000000000000000000000000000000000",
      "type": "0x2",
      "effectiveGasPrice": "0x8eab2ca62"
    },
    {
      "transactionHash": "0x00765a9c230a74cbf062c6bf512b31547108a614a6a582b2ae248f2c03f823f6",
      "transactionIndex": "0x28",
      "blockHash": "0x5aeedd096557925081860c6c2fd315fc635d26091a5210145d55c2dfe3cfcc0c",
      "blockNumber": "0x11ab4df",
      "from": "0x207E804758e28F2b3fD6E4219671B327100b82f8",
      "to": "0xc26016f1166bE7b6c5611AAB104122E0f6c2aCE2",
      "cumulativeGasUsed": "0x46671b",
      "gasUsed": "0x72bb",
      "contractAddress": null,
      "logs": [
        {
          "address": "0xc26016f1166bE7b6c5611AAB104122E0f6c2aCE2",
          "topics": [
            "0xf6391f5c32d9c69d2a47ea670b442974b53935d1edc7fd64eb21e047a839171b",
            "0xb09aa5aeb3702cfd50b6b62bc4532604938f21248a27a1d5ca736082b6819cc1",
            "0x000000000000000000000000432abccb04ddd86db9aa91fa3e03fb566270c9ff",
            "0x000000000000000000000000207e804758e28f2b3fd6e4219671b327100b82f8"
          ],
          "data": "0x",
          "blockHash": "0x5aeedd096557925081860c6c2fd315fc635d26091a5210145d55c2dfe3cfcc0c",
          "blockNumber": "0x11ab4df",
          "transactionHash": "0x00765a9c230a74cbf062c6bf512b31547108a614a6a582b2ae248f2c03f823f6",
          "transactionIndex": "0x28",
          "logIndex": "0x8f",
          "removed": false
        }
      ],
      "status": "0x1",
      "logsBloom": "0x00000000000000000020000000000000020000000000000000000000000000000000000000000000000000000000000000200000000200000000000000200000000000000000000000000000002000000000000000000400000000000000000040000000000000000000000000000000002000000000000000000000000000000000000040000000000000000000000000000000000000000000000000000000000000000020000000000000000000000000000000000020000000000000000000080000000000000000000000000000000000400000000000000000000000000000000000004000000000000000000000000000000000000000000000000000",
      "type": "0x2",
      "effectiveGasPrice": "0x96500f400"
    },
    {
      "transactionHash": "0x6a4a01945f40ca4d01edeab7e67b4ed3823af0fc1078f55a90214f3e8da7084e",
      "transactionIndex": "0x1f",
      "blockHash": "0x8be2b19c0976a7a43fb2bb7c231889eabaf8ae32c189be514d1f8c05053078de",
      "blockNumber": "0x11ab4e1",
      "from": "0x207E804758e28F2b3fD6E4219671B327100b82f8",
      "to": "0xc26016f1166bE7b6c5611AAB104122E0f6c2aCE2",
      "cumulativeGasUsed": "0x2fb00c",
      "gasUsed": "0x6154",
      "contractAddress": null,
      "logs": [
        {
          "address": "0xc26016f1166bE7b6c5611AAB104122E0f6c2aCE2",
          "topics": [
            "0xf6391f5c32d9c69d2a47ea670b442974b53935d1edc7fd64eb21e047a839171b",
            "0xb09aa5aeb3702cfd50b6b62bc4532604938f21248a27a1d5ca736082b6819cc1",
            "0x000000000000000000000000207e804758e28f2b3fd6e4219671b327100b82f8",
            "0x000000000000000000000000207e804758e28f2b3fd6e4219671b327100b82f8"
          ],
          "data": "0x",
          "blockHash": "0x8be2b19c0976a7a43fb2bb7c231889eabaf8ae32c189be514d1f8c05053078de",
          "blockNumber": "0x11ab4e1",
          "transactionHash": "0x6a4a01945f40ca4d01edeab7e67b4ed3823af0fc1078f55a90214f3e8da7084e",
          "transactionIndex": "0x1f",
          "logIndex": "0x65",
          "removed": false
        }
      ],
      "status": "0x1",
      "logsBloom": "0x00000000000000000020000000000000020000000000000000000000000000000000000000000000000000000000000000200000000000000000000000200000000000000000000000000000002000000000000000000000000000000000000040000000000000000000000000000000002000000000000000000000000000000000000040000000000000000000000000000000000000000000000000000000000000000020000000000000000000000000000000000020000000000000000000000000000000000000000000000000000000400000000000000000000000000000000000004000000000000000000000000000000000000000000000000000",
      "type": "0x2",
      "effectiveGasPrice": "0x9178d0a5c"
    },
    {
      "transactionHash": "0x968f534e98e8e524d32fb16ac022900eff6b788e100cc3f1c2b9e3b53597a7aa",
      "transactionIndex": "0x6e",
      "blockHash": "0x9bb4c3e1cddbdde6659efb6355cb53288cbac26e7223e34481fd21c0cc8fa890",
      "blockNumber": "0x11ab4e3",
      "from": "0x207E804758e28F2b3fD6E4219671B327100b82f8",
      "to": "0xc26016f1166bE7b6c5611AAB104122E0f6c2aCE2",
      "cumulativeGasUsed": "0x13446e1",
      "gasUsed": "0x72bb",
      "contractAddress": null,
      "logs": [
        {
          "address": "0xc26016f1166bE7b6c5611AAB104122E0f6c2aCE2",
          "topics": [
            "0xf6391f5c32d9c69d2a47ea670b442974b53935d1edc7fd64eb21e047a839171b",
            "0x5f58e3a2316349923ce3780f8d587db2d72378aed66a8261c916544fa6846ca5",
            "0x000000000000000000000000432abccb04ddd86db9aa91fa3e03fb566270c9ff",
            "0x000000000000000000000000207e804758e28f2b3fd6e4219671b327100b82f8"
          ],
          "data": "0x",
          "blockHash": "0x9bb4c3e1cddbdde6659efb6355cb53288cbac26e7223e34481fd21c0cc8fa890",
          "blockNumber": "0x11ab4e3",
          "transactionHash": "0x968f534e98e8e524d32fb16ac022900eff6b788e100cc3f1c2b9e3b53597a7aa",
          "transactionIndex": "0x6e",
          "logIndex": "0x225",
          "removed": false
        }
      ],
      "status": "0x1",
      "logsBloom": "0x00000000000000000020000000000000000000000000000000000000000000000000000000000000000000000000000000200000000200000000000000000000000000000000000000000000002000000000000000000400000000000001000040000000000000000000000000000000002000000000000000000000000000000000000040000000000000000000000000000000000000000000000000000000000000000000000000000000000000000000000000000020000000000000000000080000000000000000000000000000000200400000000000000000000000000000000000005000000000000000000000000000000000000000000000000000",
      "type": "0x2",
      "effectiveGasPrice": "0x8d08965e7"
    },
    {
      "transactionHash": "0x05cfa0aeb02dcdd34197d82d76e88eee8c3db8c9ff64f914d70f87e48de49d4c",
      "transactionIndex": "0x2a",
      "blockHash": "0x739d72b88e1f2c9e3bc32846963ad852df41424059fa54ff58e49e66938bad80",
      "blockNumber": "0x11ab4e5",
      "from": "0x207E804758e28F2b3fD6E4219671B327100b82f8",
      "to": "0xc26016f1166bE7b6c5611AAB104122E0f6c2aCE2",
      "cumulativeGasUsed": "0x610158",
      "gasUsed": "0x6154",
      "contractAddress": null,
      "logs": [
        {
          "address": "0xc26016f1166bE7b6c5611AAB104122E0f6c2aCE2",
          "topics": [
            "0xf6391f5c32d9c69d2a47ea670b442974b53935d1edc7fd64eb21e047a839171b",
            "0x5f58e3a2316349923ce3780f8d587db2d72378aed66a8261c916544fa6846ca5",
            "0x000000000000000000000000207e804758e28f2b3fd6e4219671b327100b82f8",
            "0x000000000000000000000000207e804758e28f2b3fd6e4219671b327100b82f8"
          ],
          "data": "0x",
          "blockHash": "0x739d72b88e1f2c9e3bc32846963ad852df41424059fa54ff58e49e66938bad80",
          "blockNumber": "0x11ab4e5",
          "transactionHash": "0x05cfa0aeb02dcdd34197d82d76e88eee8c3db8c9ff64f914d70f87e48de49d4c",
          "transactionIndex": "0x2a",
          "logIndex": "0xf7",
          "removed": false
        }
      ],
      "status": "0x1",
      "logsBloom": "0x00000000000000000020000000000000000000000000000000000000000000000000000000000000000000000000000000200000000000000000000000000000000000000000000000000000002000000000000000000000000000000001000040000000000000000000000000000000002000000000000000000000000000000000000040000000000000000000000000000000000000000000000000000000000000000000000000000000000000000000000000000020000000000000000000000000000000000000000000000000000200400000000000000000000000000000000000005000000000000000000000000000000000000000000000000000",
      "type": "0x2",
      "effectiveGasPrice": "0xa5d2ac46b"
    },
    {
      "transactionHash": "0x832f48e6496ee7bedff866a67fa61cde1ac5c2ed5553edd68f2b6f72c264d2ac",
      "transactionIndex": "0x10",
      "blockHash": "0x4343ea3a969a34f47cbe31dac280b32158a91ceebea80b2510fe2153bb5ee214",
      "blockNumber": "0x11ab4e7",
      "from": "0x207E804758e28F2b3fD6E4219671B327100b82f8",
      "to": "0xc26016f1166bE7b6c5611AAB104122E0f6c2aCE2",
      "cumulativeGasUsed": "0x145f6a",
      "gasUsed": "0x6154",
      "contractAddress": null,
      "logs": [
        {
          "address": "0xc26016f1166bE7b6c5611AAB104122E0f6c2aCE2",
          "topics": [
            "0xf6391f5c32d9c69d2a47ea670b442974b53935d1edc7fd64eb21e047a839171b",
            "0xfd643c72710c63c0180259aba6b2d05451e3591a24e58b62239378085726f783",
            "0x000000000000000000000000207e804758e28f2b3fd6e4219671b327100b82f8",
            "0x000000000000000000000000207e804758e28f2b3fd6e4219671b327100b82f8"
          ],
          "data": "0x",
          "blockHash": "0x4343ea3a969a34f47cbe31dac280b32158a91ceebea80b2510fe2153bb5ee214",
          "blockNumber": "0x11ab4e7",
          "transactionHash": "0x832f48e6496ee7bedff866a67fa61cde1ac5c2ed5553edd68f2b6f72c264d2ac",
          "transactionIndex": "0x10",
          "logIndex": "0x26",
          "removed": false
        }
      ],
      "status": "0x1",
      "logsBloom": "0x00000000000000000020000000000000000000000000000000000000000000000000000000000000000000000000000000200000000000000000000000000000000000000000000000000010002000000000000000000000000000000000000040000000000000000000000000000000002000000000000000000000000000000000000040000000000000000000000000000000000000000000000000000000000000000000000000000000000000000000000000000020000000000000000000000000000000000000000000000000000000400000000000000100200000000000000000004000000000000000000000000000000000000000000000000000",
      "type": "0x2",
      "effectiveGasPrice": "0xa606421cf"
    }
  ],
  "libraries": [],
  "pending": [],
  "returns": {},
  "timestamp": 1699449245,
  "chain": 1,
  "multi": false,
  "commit": "b0699a5"
}